:020000040800F2
:100000000028002099010008DD010008DD0100083A
:10001000DD010008DD010008DD010008000000002E
:10002000000000000000000000000000DD010008EA
:10003000DD01000800000000DD010008DD0100080E
:10004000DD010008DD010008DD010008DD01000818
:10005000DD010008DD010008DD010008DD01000808
:10006000DD010008DD010008DD010008DD010008F8
:10007000DD010008DD010008DD010008DD010008E8
:10008000DD010008DD010008DD010008DD010008D8
:10009000DD010008DD010008DD010008DD010008C8
:1000A000DD010008DD010008DD010008DD010008B8
:1000B000DD010008DD010008DD010008DD010008A8
:1000C000DD010008DD010008DD010008DD01000898
:1000D000DD010008DD010008DD010008DD01000888
:1000E000DD010008DD010008DD010008DD01000878
:1000F000DD0100080000000000000000000000001A
:0C01000000000000000000005FF808F1A3
:10010C0007B5002300910321012A8DF805108DF805
:10011C0007308DF8043007D88DF80530694600F0AB
:10012C007DF803B05DF804FB022AF7D0032A03D153
:10013C0001238DF80730F1E7042A01D10223F8E7F7
:10014C00052A02D18DF80410E8E7062A05D1012210
:10015C008DF804208DF80630E0E7072ADED1012364
:10016C008DF80430F6E7012108B5084600F094F844
:10017C000121022000F090F80121042000F08CF8FD
:10018C00BDE808400121082000F086B8002103E0FA
:10019C000A4B5B584350043109480A4B42189A42A7
:1001AC00F6D3094A02E0002342F8043B074B9A427B
:1001BC00F9D300F00FF800F0A5F8704744030008DD
:1001CC000000002014000020140000203800002043
:1001DC00FEE700000E4B1A6842F480721A609968B0
:1001EC000C4A0A409A601A6822F0885222F00112D6
:1001FC001A601A6822F480221A609A6822F47D022E
:10020C009A600022DA604FF00062034B9A607047EC
:10021C00003802400CC0FF8800ED00E02DE9F043EF
:10022C000022012703250E6807FA02F838EA0603B4
:10023C002DD14FEA420E05FA0EF4E443036803EAAB
:10024C0004090B7903FA0EFC013B4CEA090C012B57
:10025C00C0F800C011D8836891F805C01C400CFA96
:10026C000EFC4CEA0404846083889BB223EA0804E5
:10027C008B7993409BB223438380C36805FA0EF4B9
:10028C0023EA0404CB7903FA0EF32343C36001324F
:10029C00102AC9D1BDE8F083044BDA6911B11043BF
:1002AC00D861704722EA0000FAE700BF003802402C
:1002BC00064A138C3BB1013B9BB2138432F81330CA
:1002CC000380012070471846704700BF14000020BF
:1002DC00014B53F8200070471000002013B50DF1AE
:1002EC000600FFF7E5FF10B900F025F8F7E7BDF8B9
:1002FC000600FFF7EDFF041F54F8043F002BEED06F
:10030C009847F9E738B50A4CFFF72DFF2046052230
:10031C000421FFF7F5FE258AA38AADB29BB243F008
:10032C000403A382FFF7DAFFC5F3800038BD00BFDA
:08033C00000002407047704709
:1003440041030008410300084103000800000000C5
:040354000000002085
:040000050800019955
:00000001FF
