:020000040800F2
:10000000002800200D0100085101000851010008DE
:1000100051010008510100085101000800000000D2
:100020000000000000000000000000005101000876
:1000300051010008000000005101000851010008B2
:100040005101000851010008510100085101000848
:100050005101000851010008510100085101000838
:100060005101000851010008510100085101000828
:100070005101000851010008510100085101000818
:100080005101000851010008510100085101000808
:1000900051010008510100085101000851010008F8
:1000A00051010008510100085101000851010008E8
:1000B00051010008510100085101000851010008D8
:1000C00051010008510100085101000851010008C8
:1000D00051010008510100085101000851010008B8
:1000E00051010008510100085101000851010008A8
:1000F00051010008000000000000000000000000A6
:0C01000000000000000000005FF808F1A3
:10010C00002103E00A4B5B584350043109480A4B69
:10011C0042189A42F6D3094A02E0002342F8043B03
:10012C00074B9A42F9D300F00FF800F031F8704702
:10013C00A0010008000000200000002000000020AA
:10014C0000000020FEE700000E4B1A6842F480729B
:10015C001A6099680C4A0A409A601A6822F0885210
:10016C0022F001121A601A6822F480221A609A682E
:10017C0022F47D029A600022DA604FF00062034B99
:10018C009A607047003802400CC0FF8800ED00E018
:04019C000020704788
:040000050800010DE1
:00000001FF
