:020000040800F2
:1000000000280020050300084903000849030008F0
:1000100049030008490300084903000800000000E4
:10002000000000000000000000000000490300087C
:1000300049030008000000004903000849030008C4
:100040004903000849030008490300084903000860
:100050004903000849030008490300084903000850
:100060004903000849030008490300084903000840
:100070004903000849030008490300084903000830
:100080004903000849030008490300084903000820
:100090004903000849030008490300084903000810
:1000A0004903000849030008490300084903000800
:1000B00049030008490300084903000849030008F0
:1000C00049030008490300084903000849030008E0
:1000D00049030008490300084903000849030008D0
:1000E00049030008490300084903000849030008C0
:1000F00049030008000000000000000000000000AC
:0C01000000000000000000005FF808F1A3
:10010C0010B50023032482B0012A00918DF805401C
:10011C008DF807308DF8043015D9022A0ED0032A39
:10012C0018D0042A1AD0052A1CD0062A1DD0072A5A
:10013C0004D101238DF804308DF80630694600F0A7
:10014C006DF902B010BD69468DF8053000F066F906
:10015C0002B010BD01238DF80730EFE702238DF8B4
:10016C000730EBE78DF80440E8E701228DF8063004
:10017C008DF80420E2E700BF012108B5084600F025
:10018C00A9F90121022000F0A5F9BDE808400121E0
:10019C00202000F09FB900BF0121F0B508468DB0BA
:1001AC00002400F097F90227402303253F4E01A9B4
:1001BC00304601938DF809508DF808708DF80A407F
:1001CC008DF80B4000F02AF9A02301A930460193C9
:1001DC008DF809508DF808708DF80A408DF80B4099
:1001EC0000F01CF9052230461146314D00F05EF945
:1001FC0030460522062100F059F905223046072128
:10020C0000F054F9284600F095F901214FF4805084
:10021C0000F06CF901A800F0E3F94FF482724FF48E
:10022C00007301A92846ADF80620ADF80E30ADF8E4
:10023C000440ADF80840ADF81040ADF80A40ADF8F8
:10024C000C40ADF8124000F0ABF92846012100F04B
:10025C00D3F928464FF4807100F0DCF901214FF0FE
:10026C00807000F037F9102380204FF480520393F4
:10027C00104B01A90690104801930A920B94089414
:10028C0005940994079400F081F839462846012218
:10029C0000F0D0F901A90948039400F077F8012285
:1002AC002846114600F0C6F90DB0F0BD0000024022
:1002BC00003001400C300140306002401C600240B4
:1002CC0010B502460C460B4B01215C601846DA60F7
:1002DC0000F07CF84FF4007000F092F80028F9D090
:1002EC000448002100F072F8BDE810404FF4807013
:1002FC0000F092B830600240002103E00A4B5B58DA
:10030C004350043109480A4B42189A42F6D3094A21
:10031C0002E0002342F8043B074B9A42F9D300F069
:10032C000FF800F091F97047D80600080000002083
:10033C00000000200000002000000020FEE700006C
:10034C0030B400254FF000640D4B0E4A19680E486E
:10035C0041F48071196099680A409A601A6822F019
:10036C00885222F001121A601A6822F480221A6054
:10037C009A6822F47D029A60DD60846030BC70471C
:10038C00003802400CC0FF8800ED00E08B6830B4F0
:10039C000C6A0A6923434C6913438A692343CC6969
:1003AC004D6A1343026823438C6A2B4322F4FF42A9
:1003BC00CD68234322F070020C6849681343036034
:1003CC0045608460C16030BC704700BF29B94FF6EE
:1003DC00FE720368134003607047036843F0010327
:1003EC0003607047C30054BF034B044B1B680342AC
:1003FC0014BF0120002070470060024000640240DE
:10040C00FFF7F0BFC30054BF014B024B586070475D
:10041C000060024000640240FFF7F4BF00222DE9A7
:10042C00F04313464FF0010E4FF0030C0F6804E03D
:10043C000133102B02F1020223D00EFA03F434EA3A
:10044C000705F5D10CFA02F6F6430D79D0F80090B9
:10045C0005FA02F809EA0609013D48EA0908012DE6
:10046C00C0F800800FD9C568CC790CFA02F694401C
:10047C0025EA060501332C43102BC46002F102025D
:10048C00DBD1BDE8F083D0F808804D7906EA080688
:10049C0095402E43866086888D79B6B29D4026EABB
:1004AC000406ACB234438480DDE700BF10B40F24E3
:1004BC00CB0800EB830001F00701036A89008C4034
:1004CC0023EA04030362036A02FA01F1194301628D
:1004DC0010BC7047044AD36919B923EA0000D061F3
:1004EC0070471843D061704700380240044A136AC1
:1004FC0019B923EA00001062704718431062704764
:10050C0000380240044A536919B923EA00005061CB
:10051C00704718435061704700380240044A936991
:10052C0019B923EA00009061704718439061704735
:10053C000038024008B5174B984212D0164B98421F
:10054C001BD0164B984200D008BD01214FF400403F
:10055C00FFF7E4FFBDE8084000214FF40040FFF72F
:10056C00DDBF01214FF48050FFF7CCFFBDE8084000
:10057C0000214FF48050FFF7C5BF01214FF480409C
:10058C00FFF7CCFFBDE8084000214FF48040FFF797
:10059C00C5BF00BF0030014000380040003C0040A7
:1005AC004A880B8830B48C881343CA8823430C893F
:1005BC0013434A898D8923431343CC8902882B43E7
:1005CC00234302F4415213439BB20380838B0A8A68
:1005DC0023F400631B041B0C838330BC0282704722
:1005EC00002307220380028243808380C38003811F
:1005FC0043818381C3817047038829B923F0400369
:10060C001B041B0C038070479BB243F04003038018
:10061C00704700BF4FF6FF639942038804D09BB22A
:10062C0043F480730380704723F480731B041B0C0A
:10063C000380704783889BB21AB923EA0101818039
:10064C0070471943818070470023AA2230B585B0CA
:10065C0001930293ADF80C308DF8042000F02AF8C9
:10066C00062208211148FFF74BFD06224FF480713A
:10067C000F48FFF745FD0D4C0D4DA38A0A219BB287
:10068C0023F0010343F00103A382A38A01A823F002
:10069C0002031B041B0CA382AB8A9BB223F008033E
:1006AC0043F00803AB8200F00FF8E6E700140240B9
:1006BC000000024008B5FFF75FFDBDE8084000F000
:0C06CC0001B800BFFFF768BDFFF7FABDE2
:0400000508000305E7
:00000001FF
