:020000040800F2
:1000000000280020E17700082578000825780008FE
:1000100025780008257800082578000800000000F1
:10002000000000000000000000000000257800082B
:10003000257800080000000025780008A1030008CA
:10004000257800082578000825780008257800081C
:10005000257800082578000825780008257800080C
:1000600025780008257800082578000825780008FC
:1000700025780008257800082578000825780008EC
:1000800025780008257800082578000825780008DC
:1000900025780008257800082578000825780008CC
:1000A00025780008257800082578000825780008BC
:1000B00025780008257800082578000825780008AC
:1000C000257800082578000825780008257800089C
:1000D000257800082578000825780008257800088C
:1000E000257800082578000825780008257800087C
:1000F000257800080000000000000000000000005B
:0C01000000000000000000005FF808F1A3
:1001100038B51546044620B1054A3421054800F09B
:10012000F9F8054B002003EBC4039B882B8038BDF6
:10013000787B0008947B00080000002000207047B6
:1001400000780B78C01A704738B50D4C0546B4F8E6
:1001500000347F2B06D90B4A1E210B4800F0DAF839
:10016000B4F80034002295E8030004EBC305013322
:1001700085E80300A4F8003484F80424104638BD50
:10018000C0000020B87B0008D07B000838B5114CB7
:10019000B4F8001411B90322104638BD94F80434A1
:1001A00005465BB14B1E04EBC30292E8030000223C
:1001B00085E80300A4F80034104638BD064B082239
:1001C000204605F0C5FC0123B4F8001484F804347B
:1001D000E8E700BFC0000020410100080020704790
:1001E00010B582B00DF1050000F05CF801281AD0BE
:1001F0000DF1060200219DF80500FFF789FFBDF80B
:100200000630002BEED00024E000FFF79DFF013404
:10021000BDF80630A4B2A342F6D80DF1050000F0F7
:1002200041F80128E4D10020FFF7B0FF032802D0F5
:1002300000235B68FFDE00F0C3F8D3E70023024A27
:1002400018461382704700BFC804002038B5114D0E
:100250000446288A0F2805D90F48104A4B2100F080
:1002600059F8288AA0B12B78A3420FD0411E89B239
:1002700001310B4B294403E013F8012B944205D0C4
:100280009942F9D1431C9BB22C542B82002038BDDB
:100290000123F9E7C8040020087C0008F07B00086F
:1002A000C9040020074B1A8A4AB100211A4412F8E7
:1002B000012C02701A8A0846013A1A8270470121FD
:1002C00008467047C804002000207047002070478F
:1002D000F8B5012300270D4D0D4C2B7004F12006BD
:1002E000236800209847002814BF0123002304F14D
:1002F000080404F8043C18BF2F70B442F0D12B78E6
:10030000002B0CBF04200020F8BD00BFDA04002041
:1003100018000020704700BF08B500F0EDFD012077
:1003200000F04AFE212000F0A1FF0028FAD00120B1
:1003300000F076FE002000F085FE002000F08CFE2C
:10034000002000F093FE05F007F8002008BD00BF74
:1003500030B585B0684600F093FE019B0A4AA2FBC7
:1003600003239B09013BB3F1807F09D2F0250020D4
:100370000721064A064C536084F8235090601160B0
:10038000002005B030BD00BFD34D621010E000E08A
:1003900000ED00E0014BD3E900017047E8040020C4
:1003A0000449D1E90023013243F10003C1E90023EC
:1003B000704700BFE804002000207047002070470D
:1003C0000020704708B500F003F8002008BD00BF0A
:1003D000002310B50B4C194620680222C06805F0B6
:1003E000B7FE0023226819469068022205F0B0FE8D
:1003F0000023226819465068022205F0A9FE002059
:1004000010BD00BF5800002018B922EAE272104661
:10041000704708B504F0F2FF09234FF0FF32036084
:10042000104608BD0138012803D822EAE2721046BE
:10043000704708B504F0E2FF09234FF0FF32036074
:10044000104608BD4FF0FF30704700BF00207047D6
:100450004FF4005300204B60704700BF022808B5DE
:1004600002D80123184608BD04F0C8FF0922002362
:100470000260184608BD00BF014B1860704700BFFE
:1004800000300040014B5860704700BF0030004012
:10049000014B9860704700BF003000404AF6AA2226
:1004A000014B1A60704700BF003000404CF6CC4250
:1004B000014B1A60704700BF00300040034BDB68FF
:1004C000184214BF01200020704700BF00300040D8
:1004D00008B5084B984200D008BD01214FF40070C8
:1004E00000F07CFEBDE8084000214FF4007000F0F1
:1004F00075BE00BF00240140436870B423F0407310
:100500000C790A6823F4807343EA0423134343609D
:10051000CE680B6985688C68094A33432A402343B7
:100520004C79134343EA440383600A7D036B013A29
:10053000D2B223F0F87343EA0253036370BC7047EE
:10054000FDF7FFC000234FF040710122C16002752A
:10055000036003714371836003617047034A01685C
:10056000536823F440330B43536070470027014026
:1005700000230360704700BF836819B923F00103AB
:100580008360704743F0010383607047836819B943
:1005900023F004038360704743F0040383607047D3
:1005A00043681AB923EA0101416070471943416069
:1005B000704700BF836823F0F003194381607047E0
:1005C000436823F4400323F40073194341607047E8
:1005D0008162C262704700BF436823F01F03194362
:1005E00041607047054A536818B923F4000353600B
:1005F000704743F400035360704700BF0027014079
:100600001D2970B44FF0070621D9A1F11E0404EB97
:100610004404C56DA64003FA04F425EA06031C430E
:10062000C465062A4FF01F0423D90C2A3DD9122A8B
:100630005FD9182A51D9193A02EB8202036B944010
:1006400023EA040391401943016370BC70471329E6
:100650001CD9A1F1140404EB4404C568A64003FAB4
:1006600004F425EA06031C43062AC4604FF01F0465
:10067000DBD8013A02EB8202036C944001FA02F2E9
:1006800023EA04010A43026470BC7047092919D99E
:10069000A1F10A0404EB44040569A64003FA04F43A
:1006A00025EA06031C430461BBE7073A02EB82021A
:1006B000C36B944001FA02F223EA04010A43C263C5
:1006C00070BC704701EB41044569A64003FA04F48D
:1006D00025EA06031C434461A3E7133A02EB8202B6
:1006E000436B944001FA02F223EA04010A43426395
:1006F000E6E70D3A02EB8202836B944001FA02F2C4
:1007000023EA04010A43826370BC7047836843F0A4
:1007100080438360704700BF8068C0F3807070477B
:10072000836819B923F480638360704743F480635E
:1007300083607047836819B923F0020383607047B0
:1007400043F00203836070474368013923F4604338
:1007500043EA413343607047436819B923F40063A7
:100760004360704743F4006343607047806D80B21C
:10077000704700BF836819B923F4807383607047A2
:1007800043F4807383607047836819B923F400735E
:100790008360704743F40073836070471D2970B411
:1007A0004FF007062BD813291CD8092934D801EBA0
:1007B00041044569A64003FA04F425EA06031C43F4
:1007C00044611F24436C0232C3F30155521BD2B261
:1007D00002EB8202944023EA0403914019434164EE
:1007E00070BC7047A1F1140404EB4404C568A64032
:1007F00003FA04F425EA06031C43C460E1E7A1F10F
:100800001E0404EB4404C56DA64003FA04F425EA73
:1008100006031C43C465D4E7A1F10A0404EB4404B5
:100820000569A64003FA04F425EA06031C430461A3
:10083000C7E700BF436C013923F4401343EA015377
:1008400043647047002382B001930190019B1944D7
:100850000191019B1A6002B0704700BF836823F4C6
:100860007023194381607047836823F44013194350
:1008700081607047836843F480038360704700BFE2
:100880008068C0F380507047436819B923F48063CF
:100890004360704743F4806343607047436819B90D
:1008A00023F480534360704743F4805343607047A0
:1008B000002382B001930190019B303319440191D0
:1008C000019B186880B202B0704700BF0123C9B213
:1008D0008B4041681AB921EA0303436070470B4318
:1008E000436070470368194214BF0120002070471D
:1008F000C9430160704700BF4268006810EA1120D8
:1009000007D00123C9B203FA01F1114214BF1846FE
:10091000002070476FEA11210160704708B5174B3E
:10092000984212D0164B98421BD0164B984200D0DA
:1009300008BD01214FF4004000F05CFCBDE8084018
:1009400000214FF4004000F055BC01214FF48050CD
:1009500000F044FCBDE8084000214FF4805000F056
:100960003DBC01214FF4804000F044FCBDE808404C
:1009700000214FF4804000F03DBC00BF003001403A
:1009800000380040003C00404A880B8830B48C8816
:100990001343CA8823430C8913434A898D8923430F
:1009A0001343CC8902882B43234302F4415213435F
:1009B0009BB20380838B0A8A23F400631B041B0C05
:1009C000838330BC02827047F0B505460220AA8BB3
:1009D0008B6822F47B6222F00F021204120CAA83AD
:1009E0002884AE8B834285B00C46B6B234D08B8857
:1009F0006846002B14BF0227012700F041FBE18865
:100A0000009AB1F5007F29D07F01B2FBF7F2A06810
:100A100002EB82025300B3FBF0F305339BB2144A9E
:100A2000A2FB0323DB085A08901EFD2803F00103F4
:100A30008CBF022342EA032360882288A7880243EE
:100A400042F40062A0893A43024316430B43B6B214
:100A50002B84AE8305B0F0BDC988EDE7120A02EB26
:100A60008202A0685300B3FBF0F305339BB2D6E7D4
:100A7000CDCCCCCC0023072203800282438083802C
:100A8000C380038143818381C38170470023022295
:100A90000380826043808380C3808381704700BF6E
:100AA000038829B923F040031B041B0C0380704703
:100AB0009BB243F040030380704700BF838B29B98A
:100AC00023F480631B041B0C838370479BB243F4A5
:100AD00080638383704700BF038823F400631B0493
:100AE0001B0C038003889BB219430180704700BF31
:100AF000B1F5804F038805D023F480431B041B0C01
:100B0000038070479BB243F480430380704700BF6B
:100B10004FF6FF639942038804D09BB243F480737D
:100B20000380704723F480731B041B0C0380704701
:100B3000838829B923F004031B041B0C83807047AE
:100B40009BB243F004038380704700BF808980B26A
:100B5000704700BF81817047038829B923F400538F
:100B60001B041B0C038070479BB243F400530380AB
:100B7000704700BF03889BB243F4805303807047E3
:100B8000012914BF008B808A80B27047008A80B22E
:100B9000704700BF83889BB21AB923EA01018180A4
:100BA0007047194381807047012309098B40818870
:100BB0009BB289B21AB921EA0303838070470B43C1
:100BC000838070470389194214BF012000207047B9
:100BD000C94389B201817047012210B48488008919
:100BE00001F00F0380B202FA03F3184006D009099E
:100BF000A4B28A40144214BF0120002010BC7047E8
:100C0000012301F00F018B40DB439BB2038170474E
:100C100008B5344B98421FD0334B984226D0334B03
:100C200098422DD0324B984234D0324B98423BD030
:100C3000314B984242D0314B984249D0304B984288
:100C400000D008BD0121202000F0BCFABDE808401A
:100C50000021202000F0B6BA0121084600F0B2FAC7
:100C6000BDE808400021012000F0ACBA01210220BB
:100C700000F0A8FABDE808400021022000F0A2BA66
:100C80000121042000F09EFABDE808400021042064
:100C900000F098BA0121082000F094FABDE808405D
:100CA0000021082000F08EBA0121102000F08AFAFD
:100CB000BDE808400021102000F084BA0121402046
:100CC00000F080FABDE808400021402000F07ABA28
:100CD0000121802000F076FABDE808400021802044
:100CE00000F070BA00000240000402400008024018
:100CF000000C02400010024000180240001C02409C
:100D00000014024000222DE9F04313464FF0010E7B
:100D10004FF0030C0F6804E00133102B02F10202C4
:100D200023D00EFA03F434EA0705F5D10CFA02F6E3
:100D3000F6430D79D0F8009005FA02F809EA0609A1
:100D4000013D48EA0908012DC0F800800FD9C568A7
:100D5000CC790CFA02F6944025EA060501332C43BF
:100D6000102BC46002F10202DBD1BDE8F083D0F8A1
:100D700008804D7906EA080695402E4386608688ED
:100D80008D79B6B29D4026EA0406ACB23443848025
:100D9000DDE700BF00234FF6FF720371026043716D
:100DA0008371C371704700BF4FF4803382B00193E9
:100DB000019B0B430193019BC361C161019BC36113
:100DC000C3690193C369019302B07047038A194252
:100DD00014BF012000207047008A80B2704700BF16
:100DE000838A194214BF012000207047808A80B294
:100DF000704700BF01837047418370470AB9418340
:100E000070470183704700BF81827047838A9BB21D
:100E100059408182704700BF10B40F24CB0800EB0B
:100E2000830001F00701036A89008C4023EA040370
:100E30000362036A02FA01F11943016210BC7047B0
:100E40000022014B1A607047007C0040074910B433
:100E50000A684468036822F47C022343806822F411
:100E60008052134303430B6010BC7047007C00406A
:100E7000054A136818B923F010031360704743F054
:100E800010031360704700BF007C0040044B012832
:100E900018680CBFC0F3C010C0F34030704700BFEB
:100EA000007C0040054A136818B923F02003136042
:100EB000704743F020031360704700BF007C004080
:100EC000054A136818B923F400331360704743F4DC
:100ED00000331360704700BF007C0040054A136870
:100EE00018B923F480331360704743F480331360E0
:100EF000704700BF007C004000200C4B0C4A196872
:100F000041F48071196099680A409A601A6822F069
:100F1000885222F001121A601A6822F480221A60A4
:100F20009A6822F47D029A60D860704700380240C7
:100F30000CC0FF880022024B1A701870704700BF67
:100F400002380240002382B00A4A019302E0B3F55E
:100F5000A04F08D0136813F4003F019B03F1010375
:100F60000193019BF3D0034B1868C0F3404002B0DB
:100F7000704700BF00380240014B1870704700BF37
:100F800007380240034A536823F460431843506013
:100F9000704700BF00380240014B1860704700BF27
:100FA00020004742034A536823F4F85343EA0020E1
:100FB0005060704700380240014B1860704700BF16
:100FC000000047420022024B1A701870704700BFA1
:100FD00035380240014B1860704700BF8006474219
:100FE0000243024B0A431A70704700BF0A3802409E
:100FF000014B1860704700BF60004742014B18600A
:10100000704700BF70004742014B1860704700BF37
:10101000AC064742014B0143197070470B38024040
:10102000034A936823F0030318439060704700BF9E
:1010300000380240024B986800F00C00704700BF77
:1010400000380240034A936823F0F003184390608D
:10105000704700BF00380240034A936823F4E063FE
:1010600018439060704700BF00380240034A9368FD
:1010700023F4605343EAC000906070470038024098
:10108000284B10B49B6803F00C030C2B08D8DFE846
:1010900003F0070707072E0707072A07070732008D
:1010A0004FF400431F49204A4968C1F342310131DE
:1010B0008B4003601B4CA168C1F303111144097BF1
:1010C000CB404360A168C1F302211144097B23FA9C
:1010D00001F18160A16810BCC1F3C2210A44127BF6
:1010E000D340C3607047114B0F4A0360E2E7104BD7
:1010F0000D4A0360DEE70B4C0B4AA168A368C1F3FD
:101100008341515CA468C9B2E40354BF084C074C46
:10111000C3F3815304FB01F10133B1FBF3F303602B
:10112000C8E700BF003802403800002000127A00F3
:101130000024F40000F44032B2F5403F07D10849E2
:1011400000F0C0400B6823F0C04318430860044B14
:10115000596B21F440315963596B0A435A63704704
:1011600000380240014B1860704700BFD806474264
:10117000014B1860704700BFDC064742044AD36940
:1011800019B923EA0000D06170471843D061704755
:1011900000380240044A136A19B923EA00001062B9
:1011A000704718431062704700380240044A536A7F
:1011B00019B923EA00005062704718435062704723
:1011C00000380240044A136919B923EA000010618B
:1011D000704718431061704700380240044A536951
:1011E00019B923EA000050617047184350617047F5
:1011F00000380240044A936919B923EA000090615B
:10120000704718439061704700380240044A936A5F
:1012100019B923EA00009062704718439062704742
:1012200000380240044AD36A19B923EA0000D062A8
:1012300070471843D062704700380240044A136B6D
:1012400019B923EA00001063704718431063704710
:1012500000380240044A137819B923EA00001070DC
:1012600070471843107070470D3802404309012B36
:10127000054B00F01F000CBF1B685B6B23FA00F0EE
:1012800000F00100704700BF00380240024A536B73
:1012900043F080735363704700380240034BDB68B0
:1012A000184214BF01200020704700BF00380240E0
:1012B000014B1870704700BF0E38024000226FF0DB
:1012C0007F41034B1A605A609A60DA605961704737
:1012D00000040140837933B330B404681B4BE1430D
:1012E0001D6802790D401D605D6802F18042294051
:1012F000596002F58232156841792C431460026806
:101300009C68D04304409C60DC68102900EA04001B
:10131000D86013D030BC01F1804303F582331968E3
:101320000A431A6070470379016803F1804303F5AB
:1013300082331A6822EA01021A607047996830BC49
:1013400011439960D9680A43DA607047000401408C
:1013500000230C220360427103718371704700BF48
:10136000024A136918431061704700BF000401402E
:10137000014B5861704700BF00040140034B5B699B
:10138000034214BF01200020704700BF0004014049
:10139000FFF7F4BF014B5861704700BF00040140E4
:1013A0004FF0204360B143F2D20243F820206FF0A7
:1013B0007043800000F120404360C0F80431704762
:1013C00043F2DB021A60F2E782684368C16870B4D6
:1013D000134304690B434169234384690B43C16987
:1013E0002343046A0B43416A856A23430B43046821
:1013F000C16A2B43056B0B43A4002B4304F120442B
:10140000082A23601DD0426BB1F5804F956913689F
:10141000566843EA0503956843EA0613D66843EA2B
:101420000523156943EA0643526943EA055343EA33
:10143000026363600AD06FF07043C4F8043170BC7B
:101440007047236843F040032360DCE7826B9069B8
:10145000136851680343906843EA0113116943EA32
:101460000023526943EA015343EA0263C4F804319A
:1014700070BC70470221F0B400230F22FF254FF407
:1014800080574FF400564160446B816B476286621F
:1014900003608360C360036143618361C36103626E
:1014A000C3620363A36122606260E26022616261E1
:1014B000A5600A604A608D60CA600A614A618B61FA
:1014C000F0BC7047800000F12040036819B923F098
:1014D00001030360704743F001030360704700BFDE
:1014E00010B44FF6FE74002302683A492240884245
:1014F0000260036043608360C36028D0364B98422B
:101500002CD0364B98422FD0354B984232D0354BA9
:1015100098423BD0344B98423ED0344B984210D046
:10152000334B98423ED0334B984241D0324B984295
:1015300044D0324B984247D0314B984220D010BC17
:101540007047304A536843F070635360F7E72D4AA1
:1015500010BC536843F00F0353607047294A536827
:1015600043F0F0035360EAE7264A536843F470639C
:101570005360E4E7234A536843F470435360DEE763
:10158000214A536843F470235360D8E71D4A5368D7
:1015900043F470235360D2E71A4A536843F470034C
:1015A0005360CCE7184A536843F00F035360C6E713
:1015B000154A536843F0F0035360C0E7124A53687A
:1015C00043F470635360BAE70F4A536843F47043BF
:1015D0005360B4E7086002401C6002403060024083
:1015E00044600240586002406C60024080600240EB
:1015F000086402401C6402403064024044640240BB
:101600005864024000600240006402408B6830B4BD
:101610000C6A0A6923434C6913438A692343CC69E2
:101620004D6A1343026823438C6A2B4322F4FF4222
:10163000CD68234322F070020C68496813430360AD
:1016400045608460C16030BC704700BF0023036008
:1016500043608360C360036143618361C36103626C
:1016600043628362704700BF29B94FF6FE72036878
:10167000134003607047036843F001030360704741
:1016800041607047406880B2704700BF03681AB974
:1016900023EA01010160704719430160704700BFF0
:1016A000C30054BF034B044B1B68034214BF01200B
:1016B000002070470060024000640240FFF7F0BF66
:1016C000C30054BF014B024B58607047006002409A
:1016D00000640240FFF7F4BF014B1868000C70472C
:1016E000002004E0024B1868C0F30B00704700BFF5
:1016F000002004E0044A536819B923EA000050604E
:101700007047184350607047002004E0044A936813
:1017100019B923EA00009060704718439060704741
:10172000002004E0044AD36819B923EA0000D0601D
:1017300070471843D0607047002004E008B50121CD
:101740004FF00050FFF756FDBDE8084000214FF074
:101750000050FFF74FBD00BF70B491E8480040F65D
:10176000FE748A68074DC968334313432A680B43E4
:1017700004FA00F103FA00F022EA0103184328609A
:1017800070BC7047007400400023036043608360B6
:10179000C360704739B90123074A8340106820EAC3
:1017A0000300106070470122034902FA00F00B6841
:1017B00018430860704700BF0074004049B9012217
:1017C000084900094B6802FA00F023EA000048606B
:1017D00070470123034A0009516803FA00F00843E7
:1017E0005060704700740040054A536818B923F0F0
:1017F00003035360704743F003035360704700BF17
:10180000007400400022064B82B001920193019BBC
:10181000083318440190019B196002B0704700BF63
:10182000007400400022064B82B001920193019B9C
:10183000143318440190019B196002B0704700BF37
:10184000007400400828044B0CBF42EA012242EA1F
:101850000142C250704700BF207400400022074B75
:1018600082B001920193019B2C3303EB9000019015
:10187000019B186880B202B0704700BF007400403E
:1018800041B94FF48053084A8340106820EA0300AE
:10189000106070474FF48052034902FA00F00B6861
:1018A00018430860704700BF00740040054B81403A
:1018B00018681AB920EA01011960704701431960DC
:1018C000704700BF00740040FFF7F0BF034B81403A
:1018D0005B6B194214BF0120002070470074004068
:1018E000014B81405963704700740040054B8140B3
:1018F0001A68586B084003D00A4214BF0120002028
:10190000704700BF00740040014B8140596370472D
:101910000074004000217F22FF2380E80E00704702
:1019200028B9CA215322044B59625A627047FF22D8
:10193000014B5A62704700BF00280040002282B06D
:101940000E4B0192DA68520615D44FF0FF32194659
:10195000DA6000E04AB9CA68019B02F04002013334
:101960000193019BB3F5005FF4D1044BD868C0F339
:10197000801002B07047012002B07047002800407C
:1019800038B5CA2253230F4C054662626362FFF7E3
:10199000D5FF98B10120A36823F04003A360A3689A
:1019A0002A681343A360AB68236123696A6843EA2A
:1019B00002432361E36823F08003E360FF22014BCD
:1019C0005A6238BD00280040024AD36823F08003E1
:1019D000D36070470028004000215322CA200F4BDB
:1019E00082B0019158625A62DA68194622F0A00268
:1019F000DA6000E04AB9CA68019B02F020020133B4
:101A00000193019BB3F5004FF4D1FF22034BD8683B
:101A10005A62C0F3401002B0704700BF0028004077
:101A200030B5CA22002553231E4C83B00195626253
:101A30006362FFF783FFC0B142F201132560636068
:101A4000A368214603F00703A36000E04AB9CA680F
:101A5000019B02F0040201330193019BB3F5005F87
:101A6000F4D1104BDA68520705D40020FF220D4B49
:101A70005A6203B030BD00224FF6FF700A499C68DD
:101A80009A60586119619A61DA611A62DA62DA63FE
:101A90005A649A64DA601A64FFF79EFF003018BF38
:101AA0000120E3E700280040FF007F0038B5CA228C
:101AB00053230D4C054662626362FFF73FFF50B14E
:101AC000A36865B923F01003A3600120064AD36818
:101AD00023F08003D360FF22034B5A6238BD43F0EA
:101AE0001003A360F1E700BF002800405322CA2181
:101AF000094B59625A629A6830B902F0DF029A6063
:101B0000FF22054B5A62704742F020029A60FF2282
:101B1000014B5A62704700BF0028004038B5384B6F
:101B20009C68002837D114F0400459D1CC700A7851
:101B3000092A98BF002008D900230A3AD2B20133FB
:101B4000092ADBB2F9D81B01D8B24B780243092B22
:101B50004FEA02424FF0000007D90A3BDBB20130E6
:101B6000092BC0B2F9D80001C0B289780343092912
:101B70004FEA03234FF0000007D90A39C9B20130F8
:101B80000929C0B2F9D80001C0B21443234301436C
:101B900043EA01040BE014F0400424D1CC704A78ED
:101BA00008788B78120242EA004119430C43CA229A
:101BB0005323134D6A626B62FFF7C0FE60B104F0FD
:101BC0007F3424F0FE442C60EB6823F08003EB604C
:101BD000AB689B060AD50120FF22094B5A6238BD2B
:101BE000CC782404A3E7CC782404D8E7FFF7F4FEEC
:101BF000FF22034B003018BF01205A6238BD00BFDE
:101C0000002800400023C370037043708370704746
:101C1000164BF0B51B6803F07F3323F0FE43C3F38C
:101C20000627DEB21B0C03F0400E03F03F0581F8DF
:101C300003E00D704F708E70B8B93C0932092D0960
:101C400005EB850504EB840402EB820203F00F032D
:101C500007F00F0706F00F0603EB450307EB4404FC
:101C600006EB42020B704C708A70F0BD00280040F9
:101C7000014B986A5B6870470028004038B500281F
:101C800039D14A78D00604D522F010020A32D2B2F5
:101C90004A70CB780020092B07D90A3BDBB2013010
:101CA000092BC0B2F9D80001C0B20343092A4FEA98
:101CB00003434CD900200A3AD2B20130092AC0B2FB
:101CC000F9D80001C4B28878224309284FEA0222D9
:101CD0004FF0000407D90A38C0B201340928E4B231
:101CE000F9D82401E4B20978204343EA41331A4386
:101CF00042EA000409E04878CC7800028A7840EA99
:101D000004400C78104340EA4434CA225323114D56
:101D10006A626B62FFF712FE60B124F07F4424F028
:101D2000C0046C60EB6823F08003EB60AB689B063B
:101D300004D50120FF22074B5A6238BDFFF74CFE45
:101D4000FF22044B003018BF01205A6238BD002426
:101D5000B9E700BF00280040012300220370C270D1
:101D600083704370704700BF164BF0B45B6823F07C
:101D70007F4323F0C003C3F30725DEB2C3F342372A
:101D800005F01F021B0C0F708E70CB704A70B8B933
:101D9000120934091809970004EB840405F00F05B3
:101DA00006F00F063A4400EB800003F00F0306EB49
:101DB000440405EB420203EB40038C704A70CB7085
:101DC000F0BC704700280040F0B53D4B00284CD1D6
:101DD0009E6816F040066ED1D6701378092B98BF16
:101DE000002408D900200A3BDBB20130092BC0B225
:101DF000F9D80001C4B25078234309284FEA0343BD
:101E00004FF0000407D90A38C0B201340928E4B2FF
:101E1000F9D82401E4B295782043092D4FEA002433
:101E20004CD900200A3DEDB20130092DC0B2F9D8DD
:101E30000001C7B2107B3D4309284FF0000707D9C6
:101E40000A38C0B201370928FFB2F9D83F01FFB202
:101E5000D2F808E0526838434EEA02021643334390
:101E60001C43254345EA006013E09F6817F04007D4
:101E70001ED1D77054689368907823431478184320
:101E8000537840EA0440157B40EA032040EA0560AD
:101E900038435322CA240A4BB1F5807F5C625A62F0
:101EA0004FF0FF020CBFD8611862054B5A62F0BDBB
:101EB000D0780704DEE7D67836048EE70027B9E746
:101EC0000028004000230122C37002730370437096
:101ED0008370836043607047254BB1F5807F0CBFF2
:101EE000DB691B6A2DE9F047C3F30741C3F3072EF3
:101EF000DFB21E0E03F0804901F03F0501F0400AF9
:101F00000EF07F0407F07F0806F03F0C03F08033EB
:101F1000157082F803A0547082F8028082F80CC019
:101F2000C2F80890536008BB2D0924094FEA181025
:101F30004FEA1C1305EB850504EB840400EB8000DD
:101F400003EB830301F00F010EF00F0E07F00F07F4
:101F500006F00F0601EB45010EEB440407EB4000D1
:101F600006EB43031170547090701373BDE8F08753
:101F70000028004070B40026CA255324144B83B0B7
:101F8000019602465D625C62E1B99868110A20EA36
:101F900002021C469A6000E042B9E268019B0A40D6
:101FA00001330193019BB3F5005FF5D1084BDB686A
:101FB0000B4214BF01200020FF22054B5A6203B0E0
:101FC00070BC7047996801200A439A60F4E700BF2B
:101FD0000028004030B4CA255324074B0A43B0F50B
:101FE000807F5D625C620CBF5A649A64FF2230BCE1
:101FF000014B5A62704700BF00280040044BB0F507
:10200000807F0CBF586C986CC0F30E00704700BF07
:102010000028004010B45322CA24FF21064B5C6202
:102020005A629A6810BC22F007029A609A681043BC
:1020300098605962704700BF0028004010B45321D7
:10204000CA24FF22034B5C62596210BC58615A6279
:10205000704700BF00280040014B586980B27047AC
:102060000028004010B4CA2100245322134B83B02F
:10207000019459625A62D0B99A68194622F4806272
:102080009A6000E04AB9CA68019B02F00402013379
:102090000193019BB3F5005FF4D1084BD868C0F3FE
:1020A0008000FF22054B5A6203B010BC70479A684B
:1020B000012042F480629A60F3E700BF00280040EC
:1020C00030B45322CA25FF24064B5D625A629A68D7
:1020D00022F480229A609A681143014399605C62FD
:1020E00030BC704700280040024B986800F4802004
:1020F000704700BF0028004030B45322CA25FF2497
:10210000064B5D625A629A6822F4E0029A609A680D
:102110001143014399605C6230BC70470028004065
:10212000CA22532370B5094C0546626263620E46AB
:10213000FFF704FC30B101203543A561E36823F0CB
:102140008003E360FF22014B5A6270BD002800400B
:1021500038B5CA2253230D4C054662626362FFF70D
:10216000EDFB50B1A36865B923F08003A3600120A3
:10217000064AD36823F08003D360FF22034B5A62E0
:1021800038BD43F08003A360F1E700BF00280040A2
:102190005322CA21094B59625A629A6830B922F413
:1021A00000029A60FF22054B5A62704742F4000217
:1021B0009A60FF22014B5A62704700BF002800401E
:1021C00010B45322CA24FF21064B5C625A629A68FB
:1021D00010BC22F400229A609A68104398605962F9
:1021E000704700BF0028004030B45323CA24104D6C
:1021F0006C626B62EB68DC030AD5EB68DB0307D526
:102200004FF4805301E0013B02D0EC68E403FAD4C0
:10221000074BDC68E40308D411430843D86301206A
:1022200030BCFF22024B5A6270470020F8E700BF23
:10223000002800400B4B10B49B6823F4006323F08C
:10224000080351B90343CA245320FF21054A5462AD
:10225000506210BC93605162704743F400630343C3
:10226000F1E700BF002800402DE9F04F324C83B069
:10227000236B646B03F07F3324F07F4424F0C004AD
:102280005FFA84FCC4F3072EC4F3423401944FF088
:10229000000423F0FE43C3F306295FFA83F81B0C06
:1022A00003F0400A03F03F0B81F803A081F800B06F
:1022B00081F8019081F80280D4709DF804400EF0FE
:1022C0001F0A82F802C0147082F801A080BB4F463A
:1022D000464665464FEA1A1A4FEA1B1B3F09360964
:1022E0002D094FEA8A000BEB8B0B07EB870706EBF8
:1022F000860605EB850503F00F0309F00F0908F0CA
:102300000F080EF00F0E0CF00F0C824403EB4B0B7A
:1023100009EB470708EB46060CEB45050EEB4A0AAE
:1023200081F800B04F708E709570147082F801A023
:1023300003B0BDE8F08F00BF00280040014B986B50
:10234000704700BF00280040054A136C19B143EAEA
:1023500040001064704723EA40001064704700BFDB
:1023600000280040044A136C19B923EA00001064E5
:10237000704718431064704700280040044B1A6CE3
:1023800022F4C0521A641A6C10431864704700BFDC
:1023900000280040044B1A6C22F4E0621A641A6CA4
:1023A00010431864704700BF00280040044B1A6CAB
:1023B00022F4C0421A641A6C10431864704700BFBC
:1023C00000280040054A136C18B923F080031364F9
:1023D000704743F080031364704700BF002800403B
:1023E000054A136C18B943F400431364704723F48F
:1023F00000431364704700BF002800400022064BD2
:1024000082B001920193019B03EB80000190019B3C
:10241000196002B0704700BF502800400022064BF0
:1024200082B001920193019B03EB80000190019B1C
:10243000186802B0704700BF50280040044B1A6C67
:1024400022F480221A641A6C10431864704700BF8B
:1024500000280040CA22532310B5174C6262636201
:10246000E3681A070AD5E3681B0707D54FF4005342
:1024700001E0013B02D0E2681207FAD40E4AD368A9
:1024800013F0080312D19468E40604D5FF2218461D
:10249000094B5A6210BD0143D162FFF79DFAFF223A
:1024A000054B003018BF01205A6210BDFF22024BBD
:1024B00000205A6210BD00BF0028004010B4532213
:1024C000CA24104B5C625A6281B99A6820F00401F8
:1024D00022EA01029A601A6C00F0040022EA00006D
:1024E0001864FF22074B10BC5A627047996820F0AD
:1024F00004020A439A601A6C00F004001043186446
:10250000EFE700BF00280040044A054BD2681340A3
:10251000034214BF01200020704700BF0028004084
:102520007FFF01000549064ACB68024003F08003A3
:1025300042F0800263EA0203CB607047002800404B
:102540007FFF01000C4910B40B6C840C8A6820FAE0
:1025500004F403F0040303EAD43302401343C968CC
:1025600007D089B211EA101314BF0120002010BC5B
:102570007047184610BC704700280040054AC0F359
:102580000F13D06843F0800300F0800060EA03007E
:10259000D06070470028004008B501214FF08050FE
:1025A000FEF728FEBDE8084000214FF08050FEF7FE
:1025B00021BE00BF014B1860704700BF20000E42D3
:1025C000034A136823F0E00318431060704700BF0C
:1025D00000700040014B1860704700BF10000E42B1
:1025E0000022044B82B0034401920193019B1960C5
:1025F00002B07047A0000E42014B1860704700BF48
:1026000028000E42014B1860704700BF24000E42A4
:10261000044A136823F4C053184320F00C001060E0
:10262000704700BF00700040094B1A6838B922F4A7
:1026300080421A601A6822F001021A60704742F064
:1026400001021A601A6842F480421A60704700BFA3
:102650000070004010B40B4C0B4A2368012923F092
:10266000030340EA03002060136923F004031361AD
:1026700004D040BF20BF20BF10BC704730BF10BC8B
:10268000704700BF0070004000ED00E010B40C4C3B
:102690000C4A2368012923F0030340EA0300206069
:1026A000136943F00403136107D020BF054A10BC2F
:1026B000136923F004031361704730BFF6E700BFCE
:1026C0000070004000ED00E00549064A0B6843F049
:1026D00002030B60136943F00403136130BF7047BA
:1026E0000070004000ED00E0034B5B68034214BF44
:1026F00001200020704700BF00700040024A1368AC
:1027000043EA800010607047007000402DE9F047F8
:102710000026C46888B00DF1200E24BA4EF8104D82
:102720000568446887682DBA704624BA3FBA904657
:102730008A469946079506940597009601F09EFEF5
:1027400004230DEB030001960296039301F086FE2D
:10275000012001F0ABFEB8F1000F44D037460AF17A
:10276000100A09F110095AF8100C01F0BFFE5AF8CE
:102770000C0C01F0BBFE5AF8080C01F0B7FE5AF839
:10278000040C01F0B3FE009700E090B9012001F0C5
:10279000DFFE009B01330093009BB3F5803FF4D133
:1027A00038B90446002001F081FE204608B0BDE89B
:1027B000F087012001F0D6FE01F09EFE49F8100CD2
:1027C00001F09AFE49F80C0C01F096FE49F8080C4D
:1027D00001F092FE1036B04549F8040C0AF1100AD7
:1027E00009F11009BFD80124DCE700BF2DE9F0474B
:1027F0000026C46888B00DF1200E24BA4EF8104DA2
:102800000568446887682DBA704624BA3FBA904676
:102810008A469946079506940597009601F02EFE84
:10282000042318220DEB030002960192039301F09A
:1028300015FE012001F03AFEB8F1000F44D03746F2
:102840000AF1100A09F110095AF8100C01F04EFEB5
:102850005AF80C0C01F04AFE5AF8080C01F046FE3A
:102860005AF8040C01F042FE009700E090B90120F4
:1028700001F06EFE009B01330093009BB3F5803F97
:10288000F4D138B90446002001F010FE204608B00B
:10289000BDE8F087012001F065FE01F02DFE49F84A
:1028A000100C01F029FE49F80C0C01F025FE49F846
:1028B000080C01F021FE1036B04549F8040C0AF16D
:1028C000100A09F11009BFD80124DCE72DE9F04115
:1028D0000F460026C4688CB00DF1300E21BA4EF8B8
:1028E000201D0468456881682DBA704609BA94FABB
:1028F00084FE9846CDF81CE0144606950591009696
:10290000129D01F0BBFDFB680CA81BBA40F8103DFE
:102910003A687968BB6812BA09BA1BBA0B920A9175
:10292000099301F0B7FD042320220DEB030001966B
:102930000292039301F092FD012001F0B7FDB8F17E
:10294000000F42D037461034103554F8100C01F007
:10295000CDFD54F80C0C01F0C9FD54F8080C01F041
:10296000C5FD54F8040C01F0C1FD009700E090B9DA
:10297000012001F0EDFD009B01330093009BB3F5B6
:10298000803FF4D138B90446002001F08FFD204685
:102990000CB0BDE8F081012001F0E4FD01F0ACFDD8
:1029A00045F8100C01F0A8FD45F80C0C01F0A4FD51
:1029B00045F8080C01F0A0FD1036B04545F8040CB0
:1029C00004F1100405F11005BFD80124DCE700BFB5
:1029D0002DE9F0410F460026C4688CB00DF1300E91
:1029E00021BA4EF8201D0468456881682DBA7046EA
:1029F00009BA94FA84FE9846CDF81CE01446069570
:102A000005910096129D01F039FDFB680CA81BBAD8
:102A100040F8103D3A687968BB6812BA09BA1BBA27
:102A20000B920A91099301F035FD0423182120220D
:102A30000DEB030001910292039301F00FFD0120C1
:102A400001F034FDB8F1000F42D037461034103594
:102A500054F8100C01F04AFD54F80C0C01F046FD3E
:102A600054F8080C01F042FD54F8040C01F03EFD4E
:102A7000009700E090B9012001F06AFD009B01334E
:102A80000093009BB3F5803FF4D138B90446002091
:102A900001F00CFD20460CB0BDE8F081012001F0F2
:102AA00061FD01F029FD45F8100C01F025FD45F808
:102AB0000C0C01F021FD45F8080C01F01DFD10364D
:102AC000B04545F8040C04F1100405F11005BFD819
:102AD0000124DCE72DE9F0410F460026C4688CB0E4
:102AE0000DF1300E21BA4EF8201D0468456881684A
:102AF0002DBA704609BA94FA84FE9846CDF81CE0C7
:102B00001446069505910096129D01F0B7FCFB68EE
:102B10000CA81BBA40F8103D3A687968BB6812BA35
:102B200009BA1BBA0B920A91099301F0B3FC042372
:102B300040220DEB030001960292039301F08EFCFC
:102B4000012001F0B3FCB8F1000F42D03746103439
:102B5000103554F8100C01F0C9FC54F80C0C01F0BD
:102B6000C5FC54F8080C01F0C1FC54F8040C01F049
:102B7000BDFC009700E090B9012001F0E9FC009B4A
:102B800001330093009BB3F5803FF4D138B904467C
:102B9000002001F08BFC20460CB0BDE8F081012044
:102BA00001F0E0FC01F0A8FC45F8100C01F0A4FCD9
:102BB00045F80C0C01F0A0FC45F8080C01F09CFC59
:102BC0001036B04545F8040C04F1100405F1100569
:102BD000BFD80124DCE700BF2DE9F0410F460026F5
:102BE000C4688CB00DF1300E21BA4EF8201D046877
:102BF000456881682DBA704609BA94FA84FE9846F1
:102C0000CDF81CE01446069505910096129D01F042
:102C100035FCFB680CA81BBA40F8103D3A6879688F
:102C2000BB6812BA09BA1BBA0B920A91099301F058
:102C300031FC0423182140220DEB03000191029284
:102C4000039301F00BFC012001F030FCB8F1000F00
:102C500042D037461034103554F8100C01F046FCC1
:102C600054F80C0C01F042FC54F8080C01F03EFC46
:102C700054F8040C01F03AFC009700E090B90120F0
:102C800001F066FC009B01330093009BB3F5803F8D
:102C9000F4D138B90446002001F008FC20460CB0FD
:102CA000BDE8F081012001F05DFC01F025FC45F854
:102CB000100C01F021FC45F80C0C01F01DFC45F84E
:102CC000080C01F019FC1036B04545F8040C04F16D
:102CD000100405F11005BFD80124DCE708B50D4B41
:102CE000012198420AD04FF48000FEF783FABDE834
:102CF000084000214FF48000FEF77CBA4FF400102A
:102D0000FEF778FABDE8084000214FF40010FEF706
:102D100071BA00BF00540040F0B504460D4685B0BE
:102D200086886846FEF7ACF90298304926F03F06DF
:102D3000A1FB00313604890C360C8FB23E43A680CD
:102D400022882B6822F00102294E1204120CB34291
:102D5000228022D85B00B0FBF3F39BB2042B38BF78
:102D6000042301372784A3832288A98892B242F0E2
:102D70000102228023886E8923F4816323F00203F9
:102D8000AA8928891B0431431B0C0B4302439BB2C5
:102D900092B22380228105B0F0BD4BF6FF72EE881F
:102DA00096421DD003EB830303EB8303B0FBF3F3E5
:102DB0009BB243F48043C3F30B020AB943F001030F
:102DC0004FF4967202FB01F10A48CA1780FB010119
:102DD000C2EBA112013292B243F400432284C2E753
:102DE00003EB4303B0FBF3F39BB2E4E783DE1B4347
:102DF000A0860100D34D6210002310B44BF6FF7182
:102E000041F288344FF480420460C1808281838023
:102E10000381438110BC7047038829B923F0010363
:102E20001B041B0C038070479BB243F0010303801B
:102E3000704700BF038829B923F480731B041B0C5F
:102E4000038070479BB243F480730380704700BFD8
:102E5000038829B923F400731B041B0C03807047FB
:102E60009BB243F400730380704700BF038829B905
:102E700023F480631B041B0C038070479BB243F454
:102E800080630380704700BF838901F0FE019BB21D
:102E900023F0FE030B438381704700BF838929B968
:102EA00023F001031B041B0C838170479BB243F08A
:102EB00001038381704700BF038829B923F04003D1
:102EC0001B041B0C038070479BB243F0400303803C
:102ED000704700BF038819B9C3F30E03038070471E
:102EE0006FEA43436FEA53439BB20380704700BFCE
:102EF000B1F5005F038805D023F400531B041B0CBD
:102F0000038070479BB243F400530380704700BFB7
:102F1000038829B923F010031B041B0C038070479E
:102F20009BB243F010030380704700BF038829B1B0
:102F300023F080031B041B0C038070479BB243F0FB
:102F400080030380704700BFB1F5804F838B05D0AD
:102F500023F480431B041B0C838370479BB243F410
:102F600080438383704700BF22B901F0FE0189B21C
:102F70000182704741F0010189B20182704700BFB0
:102F800001827047008AC0B2704700BF038829B928
:102F900023F480531B041B0C038070479BB243F443
:102FA00080530380704700BFB1F5006F038805D0E0
:102FB00023F400631B041B0C038070479BB243F493
:102FC00000630380704700BFFFF7EEBF038829B995
:102FD00023F020031B041B0C038070479BB243F0BB
:102FE00020030380704700BF008BC0F307207047A9
:102FF000838829B923F400631B041B0C838070476A
:103000009BB243F400638380704700BF838829B973
:1030100023F480531B041B0C838070479BB243F442
:1030200080538380704700BF002382B001930190DA
:10303000019B19440191019B188880B202B070472E
:1030400083889BB21AB923EA010181807047194332
:1030500081807047838A008B9BB243EA004321F052
:103060007F401840401AB0FA80F04009704700BF16
:10307000838A028B98B240EA024020F07F4070477A
:10308000002382B00A0F0093019301900092009BED
:1030900021F07F4153B1019B14330193019B1B68C5
:1030A000194214BF0120002002B07047019B090C97
:1030B00018330193F2E700BFC94389B28182704798
:1030C0008388808A9BB280B2084006D003F4E06314
:1030D00013EA114314BF012000207047C94389B28D
:1030E0008182704708B501214FF40060FEF776F841
:1030F000BDE8084000214FF40060FEF76FB800BF44
:103100000A4910B44A684468836822F4FD4222F0F8
:103110007F022343C46813430268234304691343B3
:10312000027D234313434B6010BC7047002C0140C9
:1031300000230375036043608360C36003617047CD
:10314000014B1860704700BFA0802542014B1860FA
:10315000704700BF002C0140024B186800F00300CC
:10316000704700BF002C0140014B1860704700BF42
:103170008C8525420949036810B48B60CA6884684D
:10318000436822F4FF6222F007022343C46813431A
:10319000026923431343CB6010BC7047002C0140ED
:1031A0000023036043608360C3600361704700BF16
:1031B000014B1869C0B27047002C01400022044B3B
:1031C00082B0034401920193019B186802B07047DA
:1031D000142C0140094A036810B453624368936297
:1031E000C468D16A836821F0F701234304690B4363
:1031F000416923430B43D36210BC7047002C01404C
:1032000000234FF0FF32836080E80C00C36003614D
:1032100043617047014B186B704700BF002C0140A1
:10322000014BD3F880007047002C0140014BC3F8DC
:1032300080007047002C0140014B986C704700BF24
:10324000002C0140014B1860704700BFA08525424B
:10325000014B1860704700BFA4852542014B1860E0
:10326000704700BFA8852542014B1860704700BF1A
:10327000AC852542014B1860704700BFAC812542E8
:10328000014B1860704700BFB0812542C043024B1C
:1032900000F0010018607047B4812542014B1860AE
:1032A000704700BFB8812542044AD36B19B923EA9D
:1032B0000000D06370471843D0637047002C014072
:1032C000014B9863704700BF002C0140034B5B6BC0
:1032D000034214BF01200020704700BF002C0140B2
:1032E000FFF7F4BF014B9863704700BF002C01400B
:1032F00040F0BF60024B40F40030D860704700BF20
:1033000000ED00E0C3785BB90121037815485A0944
:1033100003F01F03203201FA03F340F82230704714
:10332000114B0F21DA6870B4D2430124C2F3022298
:103330004378C2F104058678EDB2AB4041FA02F25F
:103340003240DBB201781343064A1B0101F01F052E
:103350005018DBB2AC4080F80033490942F82140F4
:1033600070BC704700E100E000ED00E021F060413A
:1033700021F07F01014B01439960704700ED00E0AF
:1033800029B9054A136923EA000010617047024B0E
:103390001A6910431861704700ED00E0044A0428E0
:1033A00013680CBF43F0040323F004031360704759
:1033B00010E000E0034A136823F001031843106093
:1033C000704700BF003C0240054A136818B923F05B
:1033D00002031360704743F002031360704700BF9D
:1033E000003C0240054A136818B923F00403136037
:1033F000704743F004031360704700BF003C024075
:10340000054A136818B923F008031360704743F0A6
:1034100008031360704700BF003C0240084B5A6825
:10342000910707D55A68D20705D4054B0549064AC6
:1034300019611A6170470549054AD960DA60F4E7F5
:10344000003C0240BFAE9D8C16151413EFCDAB8926
:1034500005040302024A536843F0020353607047B5
:10346000003C0240044B5A68D20703D50349044A82
:10347000D960DA60704700BF003C0240EFCDAB89F5
:1034800005040302024A536843F001035360704786
:10349000003C0240054A536818B923F48073536016
:1034A000704743F480735360704700BF003C024094
:1034B000084B5A68510707D55A68D20705D4054BFF
:1034C0000549064A59615A6170470549054AD9605C
:1034D000DA60F4E7003C0240C8D9EAFB272625243D
:1034E000EFCDAB8905040302024A536843F004039D
:1034F00053607047003C0240024A536843F4802303
:1035000053607047003C0240024BD869C0F307503B
:10351000704700BF003C0240014B186A704700BF73
:10352000003C0240014BD3F880007047003C024051
:10353000014BD3F884007047003C0240014BD3F8A4
:1035400088007047003C0240034BD869C0B2AA38DB
:1035500018BF0120704700BF003C0240024BD869F1
:10356000C0F30020704700BF003C0240024BD86906
:10357000C0F30340704700BF003C0240044A536858
:1035800019B923EA00005060704718435060704733
:10359000003C0240034B9B69034214BF0120002002
:1035A000704700BF003C0240014B9861704700BF6C
:1035B000003C0240084B9A69D1070BD49A69D205A6
:1035C00001D5022070479B6913F4F05F14BF0320FC
:1035D0000420704701207047003C0240042310B5CE
:1035E00082B08DF807300446FFF7E4FF8DF807003E
:1035F0009DF80730012B09D16CB1FFF7DBFF8DF887
:1036000007009DF80730013C012BF5D01CB19DF857
:10361000070002B010BD05238DF807309DF80700A4
:1036200002B010BD38B505464FF40040FFF7D6FF95
:10363000042800D038BD00220B4C4FF400406368D2
:1036400043F400736360636843F0080363602A60B7
:10365000FFF7C4FF636823F008036360636823F423
:103660000073636038BD00BF003C024010B50446E3
:103670004FF40040FFF7B2FF042804BF002323707B
:1036800010BD00BF10B504464FF40040FFF7A6FF81
:10369000042804BF0023238010BD00BF10B50446DA
:1036A0004FF40040FFF79AFF042804BF0023236073
:1036B00010BD00BF38B504464FF400400D46FFF77B
:1036C0008DFF042800D038BD054A4FF400405368F0
:1036D00023F4807353602560BDE83840FFF77EBF58
:1036E000003C024070B504464FF400400D46FFF721
:1036F00075FF042800D070BD114A536823F480730D
:103700005360B5B9FF2104F0030324F003042668D5
:10371000DB0099404FF4004026EA0106FFF75EFF08
:10372000042808BF256031462046BDE87040FFF7F9
:10373000C1BF25704FF40040BDE87040FFF74EBF99
:10374000003C024070B505464FF400400E46FFF7BE
:1037500045FF0428044601D0204670BD184A53682E
:1037600023F4807353601EBB05F00303032B16D0B4
:103770004FF6FF7125F003052C68DB0001FA03F317
:103780004FF4004024EA0304FFF728FF042808BF91
:103790002E6021462846BDE87040FFF78BBF3146BA
:1037A0002846FFF79FFF3146681CFFF79BFFD3E7D2
:1037B0002E804FF40040BDE87040FFF70FBF00BF00
:1037C000003C024070B504464FF400400D46FFF740
:1037D00005FF042800D070BDB5B9FF2104F0030334
:1037E00024F003042668DB0099404FF4004026EAE9
:1037F0000106FFF7F3FE042808BF25603146204686
:10380000BDE87040FFF756BF25704FF40040BDE89B
:103810007040FFF7E3BE00BF70B505464FF40040AF
:103820000E46FFF7DBFE0428044601D0204670BD9B
:103830001EBB05F00303032B16D04FF6FF7125F0D6
:1038400003052C68DB0001FA03F34FF4004024EA7F
:103850000304FFF7C3FE042808BF2E602146284654
:10386000BDE87040FFF726BF31462846FFF73AFF14
:103870003146681CFFF736FFD8E72E804FF4004032
:10388000BDE87040FFF7AABE38B504464FF40040CB
:103890000D46FFF7A3FE042800D038BD25604FF485
:1038A0000040BDE83840FFF799BE00BFFFF7ECBF0E
:1038B00038B504464FF400400D46FFF78FFE04284C
:1038C00000D038BDADB9E4430E498B68CA682340C7
:1038D0009BB202EA1444D843E24343EA004344EA79
:1038E00002448B604FF40040CC60BDE83840FFF7E5
:1038F00075BE04498A68CB68224343EA1444A4B2E3
:1039000093B2E8E70000F81F38B504464FF40040D2
:103910000D46FFF763FE042800D038BDADB9E4437F
:103920000E490B694A6923409BB202EA1444D8430A
:10393000E24343EA004344EA02440B614FF400408F
:103940004C61BDE83840FFF749BE04490A694B693C
:10395000224343EA1444A4B293B2E8E70000F81FFC
:1039600038B504464FF400400D46FFF737FE0428F3
:1039700000D038BDADB9E4430E498B69CA69234014
:103980009BB202EA1444D843E24343EA004344EAC8
:1039900002448B614FF40040CC61BDE83840FFF732
:1039A0001DBE04498A69CB69224343EA1444A4B288
:1039B00093B2E8E70000F81F38B504464FF4004022
:1039C0000D46FFF70BFE042800D038BDCDB9E44307
:1039D0001149D1F88030D1F8842023409BB202EA0B
:1039E0001444D843E24343EA004344EA0244C1F8A2
:1039F00080304FF40040C1F88440BDE83840FFF704
:103A0000EDBD0549D1F88020D1F88430224343EA46
:103A10001444A4B293B2E4E70000F81F10B50446C2
:103A20004FF40040FFF7DAFD084A0428138807D155
:103A30009BB223F0FF032343D94343EA01431360BE
:103A40004FF40040BDE81040FFF7C8BD0000F81F6C
:103A500038B504464FF400400D46FFF7BFFD04287B
:103A600000D038BDADB90F498A68CB68224343EA1C
:103A70001444A4B293B2D843E24343EA004344EA75
:103A800002448B604FF40040CC60BDE83840FFF743
:103A9000A5BDE44303498B68CA6823409BB202EA90
:103AA0001444E8E70000F81F38B504464FF400401E
:103AB0000D46FFF793FD042800D038BDADB90F497E
:103AC0000A694B69224343EA1444A4B293B2D8432F
:103AD000E24343EA004344EA02440B614FF40040EE
:103AE0004C61BDE83840FFF779BDE44303490B69F9
:103AF0004A6923409BB202EA1444E8E70000F81F39
:103B000010B504464FF40040FFF768FD074A04284B
:103B1000137805D1DBB22343DC4343EA044313604B
:103B20004FF40040BDE81040FFF758BD0000F81FFB
:103B3000F8B50D4B05464FF400400E461746DC69BC
:103B4000FFF74CFD042809D13E433543C4F3034439
:103B50002C43E243054B44EA02445C604FF40040CE
:103B6000BDE8F840FFF73ABD003C02400000F81FF6
:103B700038B50C4B05464FF40040DC69FFF72EFDCD
:103B8000042808D1200C00F0F0002843C443064B61
:103B900040EA044058604FF40040BDE83840FFF769
:103BA0001DBD00BF003C02400000F81F38B50C4BA3
:103BB00005464FF40040DC69FFF710FD042808D1EA
:103BC000C4F3064444EA0500C443064B40EA0440FB
:103BD00058604FF40040BDE83840FFF7FFBC00BF1D
:103BE000003C02400000F81F012108B50846FDF71F
:103BF000F5FABDE8084000210120FDF7EFBA00BF4B
:103C00000022044B1A605A609A60DA601A615A61A5
:103C10009A617047047C0040014B1860704700BFF8
:103C200000000140024B186800F44070704700BF6C
:103C300000000140054A536818B923F0010353609E
:103C4000704743F001035360704700BF000001401C
:103C500010B40F2401F0FC0303F1804303F580331B
:103C600001F003019A6889008C4022EA04029A60FC
:103C70009A6800FA01F11143996010BC704700BFC7
:103C8000034A136823F4403318431060704700BFA1
:103C9000047C00400F4B42031B6843EA000344BF0F
:103CA00023F00F030B43020344BF23F0F00343EA66
:103CB0000113C20244BF23F4706343EA012382026A
:103CC00048BF23F47043034A48BF43EA01331360FB
:103CD000704700BF047C0040044A136819B923EA06
:103CE000000010607047184310607047007C00406F
:103CF00021B9054B1A68104318607047024A1368CF
:103D000023EA000010607047007C0040C30F20F0E1
:103D1000004029B15BB10B4B5A68104358607047A3
:103D2000084A4BB9936823EA000090607047054B3E
:103D30009A68104398607047536823EA0000506007
:103D4000704700BF047C0040054A536818B923F04F
:103D500000435360704743F000435360704700BF17
:103D6000047C0040012810D0022815D003281BD065
:103D7000042832D0052829D0062841D0002A39D17C
:103D80002C4B9A69114399617047A2B1294AD368B3
:103D900023EA0101D160704792B1C943254AD36833
:103DA00003EA0141D1607047FAB1224A136923EA5C
:103DB0000101116170471F4AD3681943D1607047F0
:103DC0001C4AD36843EA0141D160704732B3194AB3
:103DD000536923EA010151617047CAB1C943154AC9
:103DE000136903EA014111617047124A13691943CB
:103DF000116170470F4A936923EA0101916170478D
:103E00008AB1C9430B4A536903EA014151617047C2
:103E1000084A136943EA014111617047054A536931
:103E2000194351617047034A536943EA01415161A3
:103E3000704700BF047C00400122014B9A6070472C
:103E400000300240014B1860186870470030024093
:103E500039B1054A00EB810150F8043B88421360F8
:103E6000FAD1014B1868704700300240014B1868C6
:103E7000704700BF00300240014B1871704700BF0F
:103E800000300240014B1879704700BF00300240FB
:103E900008B5264B984218D0254B984221D0254B87
:103EA00098422AD0244B984233D0244B984200D0D9
:103EB00008BD01214FF48010FDF79CF9BDE80840D2
:103EC00000214FF48010FDF795B901214FF4804097
:103ED000FDF784F9BDE8084000214FF48040FDF76C
:103EE0007DB901214FF40030FDF784F9BDE80840A9
:103EF00000214FF40030FDF77DB901214FF48020FF
:103F0000FDF778F9BDE8084000214FF48020FDF767
:103F100071B901214FF40020FDF76CF9BDE80840AC
:103F200000214FF40020FDF765B900BF00380140C3
:103F30000044004000480040004C00400050004059
:103F400070B50D460446038ACA889BB223F44053D9
:103F500013438989038282892E89AB88688922F478
:103F6000B052334322F00C0203431204120C9BB2F2
:103F70001343A381A38A84B09BB223F440730B4301
:103F80006846A382FDF77CF803991A48029BA28930
:103F9000844208BF0B4612F4004F2A6803EB8303E8
:103FA00014BF5200920003EB8303B3FBF2F36422CD
:103FB000114DA189A5FB0360400902FB10330A04DF
:103FC0004FEA00100AD41B013233A5FB0323C3F3CD
:103FD000431303439BB2238104B070BDD900323137
:103FE000A5FB0131C1F3421242EA00039BB22381D7
:103FF00004B070BD003801401F85EB5100234FF421
:1040000016510C22016042818380C3800381838129
:10401000704700BF4A880B8810B48C881343C98846
:10402000028A23430B4392B29BB222F47062134381
:10403000038210BC704700BF00230380438083804D
:10404000C3807047838929B923F400531B041B0CD8
:10405000838170479BB243F400538381704700BF54
:10406000038B03F47F430383038B9BB219430183C8
:10407000704700BF838919B9C3F30E03838170476A
:104080006FEA43436FEA53439BB28381704700BF9B
:10409000838A29B923F400631B041B0C83827047B5
:1040A0009BB243F400638382704700BFC1F30801F1
:1040B000818070478088C0F308007047038A23F02E
:1040C0000F031B041B0C0382038A9BB2194301825A
:1040D000704700BF838929B923F002031B041B0C1E
:1040E000838170479BB243F002038381704700BF16
:1040F000838923F400631B041B0C838183899BB297
:1041000019438181704700BF038A23F020031B04F9
:104110001B0C0382038A9BB219430182704700BFC4
:10412000038A29B923F480431B041B0C03827047C4
:104130009BB243F480430382704700BF83899BB2E4
:1041400043F0010383817047838A29B923F0080370
:104150001B041B0C838270479BB243F008038382CD
:10416000704700BF038BDBB20383038B9BB243EA30
:1041700001210183704700BF838A29B923F02003FE
:104180001B041B0C838270479BB243F02003838285
:10419000704700BF838A29B923F010031B041B0C4E
:1041A000838270479BB243F010038382704700BF45
:1041B000838A23F004031B041B0C8382838A9BB233
:1041C00019438182704700BF838A29B923F0020313
:1041D0001B041B0C838270479BB243F00203838253
:1041E000704700BF838A9BB21AB923EA010181821A
:1041F0007047194381827047012310B401F01F04F6
:10420000C1F34211012903FA04F30FD002290CBFB4
:10421000103014302AB9026810BC22EA030303608C
:104220007047026810BC1343036070470C30F1E71D
:104230000388194214BF012000207047C94389B286
:10424000018070470123C1F3421210B4012A01F02A
:104250001F0403FA04F315D0022A0CBF028A828AD3
:1042600092B21340028892B24BB10123090A03FAB9
:1042700001F10A4214BF1846002010BC70471846CE
:1042800010BC7047828992B21340EBE70123090A00
:104290008B40DB439BB20380704700BF08B5012110
:1042A0004FF40070FCF7A6FFBDE8084000214FF472
:1042B0000070FCF79FBF00BF47F6FF72124B70B44F
:1042C0005C68194624F07F745C605D6890E850007B
:1042D00034432C435C609B6803F0200323B98B6854
:1042E000013A03F02003F9D1074A136823F07E0353
:1042F0001360C168836814680B43016923430B434F
:10430000136070BC704700BF0024004000230360AE
:1043100043608360C3600361704700BF014B186056
:10432000704700BF0080044247F6FF7205498B6862
:1043300003F0200323B98B68013A03F02003F9D17D
:10434000704700BF00240040014B1860704700BF59
:1043500080800442014B1860704700BF1C800442FB
:10436000044B5A6822F070025A605A681043586031
:10437000704700BF00240040044B5A6822F460726A
:104380005A605A6810435860704700BF00240040CC
:10439000044A536823F47833536053681943014344
:1043A0005160704700240040044B5A6822F4E052E8
:1043B0005A605A6810435860704700BF002400409C
:1043C000024B800003445960704700BF1024004036
:1043D0000122014B1A60704708810442044A536865
:1043E00019B923EA000050607047184350607047C5
:1043F00000240040034B9B68034214BF01200020AF
:10440000704700BF00240040014BD860704700BFD8
:1044100000240040064A9368034005D053681842C0
:1044200014BF01200020704718465368704700BF32
:1044300000240040014BD860704700BF00240040BA
:1044400008B501214FF00060FCF7BCFEBDE8084054
:1044500000214FF00060FCF7B5BE00BF064910B464
:1044600090E818000A682343806822F07E02134314
:1044700003430B6010BC7047000006500268044BF9
:104480001A6142685A6182689A61C268DA6170474B
:10449000000006500268044B1A6242685A62826841
:1044A0009A62C268DA62704700000650054A1368D3
:1044B00018B923F001031360704743F00103136040
:1044C000704700BF00000650002303604360836014
:1044D000704700BF0023036043608360C360704780
:1044E0000023036043608360C3607047014B9860A2
:1044F000704700BF00000650014BD868704700BFEE
:1045000000000650044B1A6902605A6942609A69B9
:104510008260DB69C360704700000650044B1A6A72
:1045200002605A6A42609A6A8260DB6AC3607047BE
:1045300000000650044A136819B923EA000010600D
:10454000704718431060704700000650FFF7F2BF35
:10455000034B5B68034214BF01200020704700BF7B
:1045600000000650044A012813680CBF43F0800382
:1045700043F4807313607047000006500B4AB0F597
:10458000007F136851680AD0106810F4806005D06D
:10459000536813F0060F14BF01200020704713F476
:1045A0000070FBD001F00100704700BF0000065012
:1045B000024A136843EA90001060704700000650FA
:1045C000B0F1804F08B522D0394B984229D0394BF1
:1045D000984230D0384B984237D0384B98423ED032
:1045E000374B984245D0374B98424CD0364B984287
:1045F00053D0364B984200D008BD01211020FCF763
:10460000EDFDBDE8084000211020FCF7E7BD0121C9
:104610000846FCF7EFFDBDE8084000210120FCF74B
:10462000E9BD01210220FCF7E5FDBDE808400021BD
:104630000220FCF7DFBD01210420FCF7DBFDBDE813
:10464000084000210420FCF7D5BD01210820FCF71B
:10465000D1FDBDE8084000210820FCF7CBBD0121B9
:104660001020FCF7C7FDBDE8084000211020FCF732
:10467000C1BD01212020FCF7BDFDBDE8084000219F
:104680002020FCF7B7BD01210420FCF7A7FDBDE801
:10469000084000210420FCF7A1BD01210820FCF7FF
:1046A0009DFDBDE8084000210820FCF797BD00BF34
:1046B0000004004000080040000C004000100040D2
:1046C0000014004000080140000C014000100140AF
:1046D0000388B0F1804F10B49BB21FD0124A9042B1
:1046E0001CD002F58062904218D002F580629042A0
:1046F00014D00E4A904208D002F58062904204D055
:1047000023F440730A899BB2134301224C68098841
:104710000380C462018510BC828270474A8823F0FE
:1047200070031343E5E700BF0004004000100040A1
:1047300000234FF0FF3203804260038143807047C3
:1047400001858282704700BF038823F070031B0439
:104750001B0C19430180704741627047C16270476A
:10476000406A7047008D80B2704700BF038829B946
:1047700023F002031B041B0C038070479BB243F021
:1047800002030380704700BF038829B923F00403A4
:104790001B041B0C038070479BB243F0040303808F
:1047A000704700BF038829B923F080031B041B0C4A
:1047B000038070479BB243F080030380704700BFC3
:1047C000038823F008031B041B0C038003889BB29F
:1047D00019430180704700BF038823F440731B0412
:1047E0001B0C038003889BB219430180704700BFF4
:1047F000038829B923F001031B041B0C03807047B5
:104800009BB243F001030380704700BF028C30B4B9
:1048100022F001021204120C0C890284038C028B18
:104820004D8823F002031B0422F073022C431B0C5F
:104830000D88120449682343120C2A439BB241633A
:1048400030BC028303847047028C70B422F01002E3
:104850001204120C0C890284038C028B4E8823F004
:10486000200322F4E0420D881B04120434431B0C85
:10487000120C496843EA041342EA05229BB292B241
:10488000816370BC02830384704700BF028C30B424
:1048900022F480721204120C0C890284038C828B25
:1048A0004D8823F400731B0422F070022C431B0C70
:1048B0000D881204496843EA0423120C2A439BB270
:1048C000C16330BC82830384704700BF028C70B424
:1048D00022F480521204120C0C890284038C828B05
:1048E0004E8823F4005322F4E0420D881B04120486
:1048F00034431B0C120C496843EA043342EA052294
:104900009BB292B2016470BC82830384704700BF83
:1049100000230380438043600381704710B4012467
:10492000038C8C409BB223EA040321F00804038427
:1049300018306CB10439C1F34E010B58120223F444
:10494000E0430B500B5892B21A430A5010BC704708
:1049500049080B5810BC23F070030B500B581A4336
:104960000A5070474163704781637047C163704765
:1049700001647047038B23F070031B041B0C194365
:1049800001837047038B23F4E0431B041B0C43EAB1
:10499000012189B201837047838B23F070031B04CC
:1049A0001B0C194381837047838B23F4E0431B0462
:1049B0001B0C43EA012189B281837047038B23F0EA
:1049C00008031B041B0C194301837047038B23F45A
:1049D00000631B041B0C43EA012189B20183704769
:1049E000838B23F008031B041B0C1943818370473E
:1049F000838B23F400631B041B0C43EA012189B25F
:104A000081837047038B23F004031B041B0C1943A1
:104A100001837047038B23F480631B041B0C43EA60
:104A2000012189B201837047838B23F004031B04A7
:104A30001B0C194381837047838B23F480631B0411
:104A40001B0C43EA012189B281837047038B23F059
:104A500080031B041B0C194301837047038BC3F3B2
:104A60000E0343EA012189B201837047838B23F04F
:104A700080031B041B0C194381837047838BC3F392
:104A80000E0343EA012189B281837047038C23F02E
:104A900002031B041B0C194301847047038C23F091
:104AA00020031B041B0C43EA011189B201847047E7
:104AB000038C23F400731B041B0C43EA012189B20D
:104AC00001847047038C23F400531B041B0C43EA3E
:104AD000013189B201847047038923F008031B0464
:104AE0001B0C038103899BB219430181704700BFEE
:104AF00010B40124038C8C409BB223EA040303848A
:104B0000038C02FA01F1194389B2018410BC704789
:104B10000B88F0B5002B31D0042B55D0082B7FD05B
:104B200045F6FF7340F6FF42048C4E8824F480540F
:104B30002404240CB1F804E00D890484878BB0F8B8
:104B400020C02C0303EA0C0344EA0E243A4043F449
:104B50008053224343EA063392B29BB2828303849A
:104B6000828BC98822F440621204120C8283838BE8
:104B70009BB243EA01239BB28383F0BD028C4C8835
:104B800022F001021204120C8B880E890284058B1C
:104B9000028CADB225F0F30592B22B4322F00A024B
:104BA00043EA061322439BB242F0010203830284CC
:104BB000038BCA8823F00C031B041B0C0383038B99
:104BC0009BB213430383F0BD40F6FF42048C4D8833
:104BD00024F010042404240C8E88B1F808E0048426
:104BE000078B038C34029BB223F0A00344EA0E34FB
:104BF0003A4043F01003224343EA051392B29BB2BA
:104C000002830384028BC98822F440621204120CCE
:104C10000283038B9BB243EA01239BB20383F0BD63
:104C2000048C4D8824F480742404240C8A880E8912
:104C30000484848B038CA4B29BB224F0F30423F489
:104C40002063224343F4807342EA061243EA0523B9
:104C500092B29BB282830384838BCA8823F00C03B5
:104C60001B041B0C8383838B9BB213438383F0BD94
:104C700000230122038082804380C3800381704728
:104C8000F0B54F888E88002F0B880CBF02220022BF
:104C9000012E0CBF02240124002B4CD040F6FF4E05
:104CA000038C0D8923F010031B041B0C0384B0F844
:104CB00018C0038C36029BB223F0A00346EA0536E7
:104CC0000EEA0C0E43F010034EEA060643EA071301
:104CD000B6B29BB206830384038BCE8823F4406371
:104CE0001B041B0C0383038B9BB243EA06239BB27A
:104CF0000383038C23F001031B041B0C0384038B2D
:104D0000018C9BB223F0F30389B243EA051321F02F
:104D10000A019BB241F0010123430A430383028449
:104D2000038B23F00C031B041B0C0383038B9BB22C
:104D30001E430683F0BD038C40F6FF4C23F00103B5
:104D40001B041B0CB1F808E00384058B038CADB287
:104D500025F0F3059BB22E4323F00A0346EA0E1614
:104D60003B4343F00103B6B206830384058BCB8833
:104D700025F00C010904090C0183018B89B2194348
:104D80000183018C21F010010904090C0184058BB9
:104D9000018C0CEA050C89B24CEA0E3E21F0A00110
:104DA0001FFA8EFE41F0100141EA02124EEA04247D
:104DB00004830284028B22F440621204120C0283E8
:104DC000028B92B242EA03239BB20383F0BD00BF81
:104DD000406B7047806B7047C06B7047006C7047CA
:104DE000038B23F00C031B041B0C0383038B9BB26C
:104DF00019430183704700BF038B23F440631B04F6
:104E00001B0C0383038B9BB243EA012189B201830C
:104E1000704700BF838B23F00C031B041B0C8383A0
:104E2000838B9BB219438183704700BF838B23F42C
:104E300040631B041B0C8383838B9BB243EA0121D9
:104E400089B28183704700BF81827047038A19420B
:104E500014BF012000207047C94389B20182704706
:104E6000038A828911EA030092B203D0114214BF6F
:104E700001200020704700BFC94389B201827047FA
:104E80000A43A0F84820704783899BB21AB923EAE5
:104E9000010181817047194381817047FFF7F4BF99
:104EA000838829B923F008031B041B0C83807047F7
:104EB0009BB243F008038380704700BF038923F04F
:104EC00007031B041B0C0381704700BF038923F0F9
:104ED00070031B041B0C1943018103899BB243F02F
:104EE00007030381704700BF602970B427D0068C88
:104EF00042F0010226F001063604360C0684058BCA
:104F0000068C25F0F3042404240C26F00A0544EA58
:104F100003142D0444F001042D0CA4B215430483A2
:104F20000584038970BC23F070031B041B0C194318
:104F3000018103899BB243F007030381704740F668
:104F4000FF44058C25F010052D042D0C0584068BDF
:104F5000058C344025F0A0052D042D0C44EA0333C4
:104F600045EA021243F4807342F010029BB292B2FF
:104F700003830284D5E700BF10B4048942EA032307
:104F80001943E4B2214389B20181038910BC23F0A3
:104F900077031B041B0C43F077030381704700BFAA
:104FA00010B4048942EA03231943E4B2214389B2CD
:104FB0000181038910BC9BB243F480430381704795
:104FC000038923F070031B041B0C194301817047F4
:104FD000838823F070031B041B0C838083889BB29F
:104FE00019438180704700BF038923F007031B0426
:104FF0001B0C038103899BB219430181704700BFD9
:10500000038923F080031B041B0C038103899BB2DB
:1050100019430181704700BF10B404890A43E4B208
:1050200042EA032323439BB2038110BC704700BFB5
:1050300070B40689048B058C24F4407424F00304B6
:1050400025F0220526F0070624042D0442EA031366
:105050003604240C2D0C360C44F480741D4331436B
:1050600044F00104ADB201810483058470BC704733
:10507000838829B923F080031B041B0C83807047AD
:105080009BB243F080038380704700BFB0F850307C
:1050900003EA1143A0F85030B0F85030194389B2F8
:1050A000A0F85010704700BF08B501214FF4006010
:1050B000FCF7A0F8BDE8084000214FF40060FCF7C1
:1050C00099B800BF034A536823F4C0731843506073
:1050D000704700BF002C0040002382B0074A0193B4
:1050E000536800F07F0023F07F030193019B184376
:1050F0000190019B536002B0704700BF002C00403C
:105100000122014B1A607047A4800542024B00F057
:105110007F001860704700BF002C0040024B40F039
:1051200080001860704700BF002C0040024B986858
:10513000003018BF01207047002C00400022014BB6
:105140009A607047002C0040054B064A1B680648D1
:1051500003F138013C33106051609360704700BF29
:10516000003C02405C7C004001010100044A1368DD
:1051700019B923EA000010607047184310607047A7
:105180005C7C004021B9054B1A68104318607047D9
:10519000024A136823EA0000106070475C7C0040FC
:1051A000054A136819B923EAC0101060704743EA32
:1051B000C0101060704700BF5C7C0040044B1A6850
:1051C00022F080521A601A6810431860704700BFBE
:1051D0005C7C0040044B5A6822F000425A605A68D6
:1051E00010435860704700BF5C7C00401E4B012894
:1051F00070B45B6814D0B0F5807F23D070BC23F40A
:10520000C00343EA0143202913BF23F0785323F05E
:10521000F87141EA025343EA4263134A536070470C
:1052200023F06000202940EA01000BBF20F01F0599
:1052300020F4787042EA050340EA42130A4A70BC3F
:105240005360704723F4C04444EA012420290BBF73
:1052500024F4F84624F4782446EA822344EAC2334C
:10526000014A70BC536070475C7C00401E4B0128B3
:1052700070B49B6814D0B0F5807F23D070BC23F449
:10528000C00343EA0143202913BF23F0785323F0DE
:10529000F87141EA025343EA4263134A936070474C
:1052A00023F06000202940EA01000BBF20F01F0519
:1052B00020F4787042EA050340EA42130A4A70BCBF
:1052C0009360704723F4C04444EA012420290BBFB3
:1052D00024F4F84624F4782446EA822344EAC233CC
:1052E000014A70BC936070475C7C0040064B01280B
:1052F0001B6806D0B0F5807F0CBFC3F38070D80F59
:105300007047C3F3407070475C7C004030B40025A8
:105310004FF000640D4B0E4A19680E4841F480713D
:10532000196099680A409A601A6822F0885222F03F
:1053300001121A601A6822F480221A609A6822F414
:105340007D029A60DD60846030BC704700380240A6
:105350000CC0FF8800ED00E01E4B10B49B6803F00A
:105360000C030C2B08D8DFE803F0070707071E071C
:1053700007071B07070721004FF400431549164A8A
:105380004968C1F3423101318B40124913488968A1
:1053900010BCC1F303110A44127BD3400360704771
:1053A0000F4B0D4AF1E70F4B0B4AEEE709480A4A4B
:1053B000816883688468C1F38341505CE10354BF12
:1053C00008490749C3F3815301FB00F10133B1FBE5
:1053D000F3F3DAE700380240F07A000854000020C6
:1053E00000127A000024F400947C000800000020E1
:1053F000BC000020C0000020F4040020014B18680D
:105400007047C046580000200CB400B583B004AB10
:1054100004CB019300F058F803B008BC02B0184761
:105420000EB400B582B003AB0100054804CB0068A0
:10543000019300F049F802B008BC03B01847C04619
:10544000580000209368013B10B59360002B08DBE7
:105450001368581C1060FF201970084010BC02BC73
:1054600008479469A34203DB0B061B0E0A2BEFD1FE
:1054700000F038FFF2E7C046F8B506000D00140052
:10548000D718002B03D10CE00134BC4209D021789D
:105490002A003000FFF7D6FF431CF5D1F8BC02BC50
:1054A00008470020FAE7C046936810B51400002BA7
:1054B00004D10020536010BC02BC084701F026FA5A
:1054C0000023A3606360F6E7F0B55F4656464D469D
:1054D0004446F0B49FB003908B4617000593002814
:1054E00004D083690493002B00D103E18A4B9B45D0
:1054F00000D105E1894B9B4500D105E1884B9B45D7
:1055000000D105E15B469B891B0700D4E4E05B46C4
:105510001B69002B00D1DFE0002306AD6B61203357
:105520006B761033AB767F4B9A467F4E3B783C00D0
:10553000252B0BD0002B02D108E0252B03D0013402
:105540002378002BF9D1E31B984668D12378002BF0
:1055500072D00122002352426A60443201342B602F
:10556000EB60AB60AB54AB65012706E03B00801BF2
:1055700083402A6813432B600134217805223000D0
:1055800001F042FC0028F1D12B68DA0602D5202177
:105590004322A9541A0702D52B214322A95421786A
:1055A0002A2900D173E00800303809280BD8EB68AD
:1055B0009A000134D31821785B001B18080030389A
:1055C0000928F5D9EB602E294BD00322504601F073
:1055D0001BFC002807D05346C01A402383402A688A
:1055E00013432B600134217806225048671C29762A
:1055F00001F00AFC002865D04D4B002B2AD005ABEA
:1056000000935A464B4B29000398AFF30080814624
:105610004B46013310D06B694B446B6186E73A000F
:1056200059460398FFF728FF431C05D06B69434494
:105630006B612378002B8CD15B469B895B0652D42F
:1056400068691FB03CBC90469946A246AB46F0BC88
:1056500002BC08470722059B073393430833059391
:10566000D9E761782A291CD008000023303801349A
:105670006B600928A9D89A000134D31821785B00FF
:105680001B18080030380928F5D96B609DE7059A8A
:10569000111D12680591002A0EDBEA606178013461
:1056A00091E7059B191D1B68A21C05916B60002BDF
:1056B0001CDBA178140088E75242EA6002221343FF
:1056C0002B60EBE705AB00935A461A4B2900039871
:1056D00000F0E2F881469BE75946039800F076FE19
:1056E000002800D118E701204042AAE701235B42CD
:1056F0006B60DEE701F0DCF8074B9B4500D0F9E674
:10570000039B5B689B46FDE6039B9B689B46F9E613
:10571000039BDB689B46F5E6587B0008387B000856
:10572000187B0008607C0008587C0008647C000836
:10573000000000007954000810B504001300044A6A
:1057400010680A002100FFF7BFFE10BC02BC08472A
:1057500058000020F0B54E4657464546E0B41F00BD
:10576000089B914698468A680B6906000C00934294
:1057700000DA13004A4613604322A25C002A02D0DA
:105780004A460133136023689A0666D54B461B6868
:105790009A1C4B4606201A6023681900184208D14B
:1057A000E1688A1A19218A460025A2441900002AB4
:1057B0004ADC4323E35C5A1E93418A060AD5302013
:1057C000E1184331087045215A1C615CA21843322C
:1057D00011700233220039004332300000F0B6F974
:1057E000431C21D04B46E2681B68D31A9946062316
:1057F00022681340042B3BD14B46002B38DBA368B7
:10580000226993423ADC4B46002B3AD01A340025E9
:1058100002E001354D4534D001232200390030002B
:1058200000F094F9431CF4D1012040421CBC904686
:105830009946A246F0BC02BC08474B46E2681B688A
:105840000135D31AAB421EDD012352463900300028
:1058500000F07CF9431CF0D1E6E706221A4202D19F
:105860004A4612689CE74323E35C5A1E9341B1E722
:105870000021A36822698946934202DD9B1A99445C
:10588000C4E70020D2E743232168E35C5A1E93411A
:105890008A0694D49EE7C046F0B556469A464323FE
:1058A0009C4644464D465F468C446346F0B487B000
:1058B00003930B7E914680460C00109A6E2B57D0B6
:1058C00015D8632B00D103E100D9DCE0002B5BD0BD
:1058D000582B00D007E1452163549A4923688B4631
:1058E00019061AD51168081D10600D681BE0732B8E
:1058F00000D1DBE000D987E06F2B00D1FAE0702BFC
:1059000000D0F0E0202309680B4323604521782074
:1059100060548D498B461906E4D45906E2D51168C6
:10592000081D10600D88DA0702D52022134323607A
:105930001027002D03D1202322689A4322600022E1
:105940004323E2546368A360002B00DA92E0042250
:10595000216891432160002D6AD1002B00D08BE09B
:10596000039E082F00D175E0039B9B1B23610EE073
:105970000B68190602D45B0600D5D0E01368191D28
:10598000116062691B681A600023039E23615346FD
:1059900005AA009321004B464046FFF7DBFE431C5F
:1059A0002FD0236932004946404600F0D0F8431C0E
:1059B00027D023689B070DD4E3680598984200DA46
:1059C000180007B03CBC90469946A246AB46F0BCD6
:1059D00002BC0847E36805981A1A002AEEDD260083
:1059E0000025193605E0E368059801351A1AAA4220
:1059F000E4DD012332004946404600F0A8F8431C8C
:105A0000F1D101204042DCE7752B73D0782B6AD1AD
:105A10000B687BE743222D21A15462686D42A2608E
:105A2000002A24DB042293432360464B0A279B462B
:105A3000039E2800390001F0DDFD5B465B5C013E02
:105A400028003370390001F057FD051EF1D1082FF1
:105A500000D089E72368DB0700D485E76368226903
:105A6000934200DD80E73023013E33707CE7354B05
:105A70000A279B46002DDBD15B4626001A7842237D
:105A80004236E2546DE7642B01D0692B2BD1236899
:105A9000190601D4590649D41168081D10600D6813
:105AA000002DB7DB274B0A279B464BE71368191DD0
:105AB00011601E6862680021300001F0A5F900281D
:105AC0003ED0801B6060206100224323E2545EE7E9
:105AD00013680E00191D11601A684223E254413BFD
