:020000040800F2
:10000000002800204103000885030008850300083C
:100010008503000885030008850300080000000030
:100020000000000000000000000000008503000840
:100030008503000800000000850300088503000810
:100040008503000885030008850300088503000870
:100050008503000885030008850300088503000860
:100060008503000885030008850300088503000850
:100070008503000885030008850300088503000840
:100080008503000885030008850300088503000830
:100090008503000885030008850300088503000820
:1000A0008503000885030008850300088503000810
:1000B0008503000885030008850300088503000800
:1000C00085030008850300088503000885030008F0
:1000D00085030008850300088503000885030008E0
:1000E00085030008850300088503000885030008D0
:1000F0008503000800000000000000000000000070
:0C01000000000000000000005FF808F1A3
:10010C00F0B50027012585B004AC04F8087D214624
:10011C00284604AE8DF8075000F034F816F8090D97
:10012C0000F00CF8304600F01DF8284600F096F868
:10013C00204600F0BBF8384605B0F0BD064B1A7CE3
:10014C000F2A03D8511C985419747047034A56212E
:10015C00034800F0C7B800BF24000020C803000803
:10016C00DC030008064A137C33B1013BDBB2D15CE3
:10017C0013740170002070474FF0FF30704700BFC0
:10018C0024000020F8B5304D044695F880611F2EF0
:10019C0052D803C9FF2706EB460305EB830383E81C
:1001AC000300721C1F7285F88021284991F820E009
:1001BC00BEF1000F46D00B78A34238D00EF1FF30C1
:1001CC00C7B20B4601EB470703E013F8022FA2421C
:1001DC0015D0BB42F9D1BEF10F0F09D80EF10103B6
:1001EC00DBB201EB4E0201F81E40567081F8203054
:1001FC00174A7621BDE8F840164800F073B8012381
:10020C00C0B2184407E01F46013301EB430212F859
:10021C00022CA2420CD09842F5D1002303EB4302EE
:10022C0005EB8202137AFF2BF8D11672F8BD00276A
:10023C0001EB47014B78F1E7074A8321054800F0B1
:10024C0051F8B2E70123CCE7380000200000002071
:10025C00A8030008DC0300088803000830B4114C24
:10026C0094F8201089B12378834213D001230139EB
:10027C00C9B2194407E01D46013304EB430212F8DE
:10028C00022C824207D08B42F5D1FF22064B1A700A
:10029C0030BC7047002504EB45046278024B1A70A1
:1002AC0030BC7047000000203500002030B40B4CEF
:1002BC002378FF2B0ED00546094A03EB430302EBD0
:1002CC00830393E8030085E8030000201A7A227068
:1002DC0030BC70474FF0FF30FAE700BF350000200C
:1002EC0038000020704700BF30B400254FF0006488
:1002FC000D4B0E4A19680E4841F4807119609968CB
:10030C000A409A601A6822F0885222F001121A6090
:10031C001A6822F480221A609A6822F47D029A608C
:10032C00DD60846030BC7047003802400CC0FF8830
:10033C0000ED00E0002103E00A4B5B584350043110
:10034C0009480A4B42189A42F6D3094A02E00023A4
:10035C0042F8043B074B9A42F9D3FFF7C5FFFFF76E
:10036C00CFFE7047F00300080000002000000020C2
:0C037C0000000020BC010020FEE7000093
:100388004D6178206E756D6265722068616E646C6F
:10039800657273207265676973747261746564004D
:1003A8004D6178206E756D626572206576656E7434
:1003B8007320726567697374726174656400000004
:1003C8004576656E7420737461636B2066756C6C1A
:1003D800000000007372632F6E656F732F6576657A
:0803E8006E74732E6300000027
:0400000508000341AB
:00000001FF
