:020000040800F2
:1000000000280020055B0008495B0008495B0008E8
:10001000495B0008495B0008495B000800000000DC
:10002000000000000000000000000000495B000824
:10003000495B000800000000495B000895030008C8
:10004000495B0008495B0008495B0008495B000800
:10005000495B0008495B0008495B0008495B0008F0
:10006000495B0008495B0008495B0008495B0008E0
:10007000495B0008495B0008495B0008495B0008D0
:10008000495B0008495B0008495B0008495B0008C0
:10009000495B0008495B0008495B0008495B0008B0
:1000A000495B0008495B0008495B0008495B0008A0
:1000B000495B0008495B0008495B0008495B000890
:1000C000495B0008495B0008495B0008495B000880
:1000D000495B0008495B0008495B0008495B000870
:1000E000495B0008495B0008495B0008495B000860
:1000F000495B000800000000000000000000000054
:0C01000000000000000000005FF808F1A3
:1001100038B51546044620B1054A3521054800F09A
:10012000F3F8054B002003EBC4039B882B8038BDFC
:10013000345E0008505E0008000000200020704778
:1001400000780B78C01A704770B50D4C0646B4F8AD
:1001500000347F2B06D90B4A1F210B4800F0D4F83E
:10016000B4F8003404EBC3050022013396E8030021
:1001700084F8042485E80300A4F80034104670BD18
:1001800058000020745E00088C5E000838B5114CE1
:10019000B4F8001411B90322104638BD94F80434A1
:1001A00005465BB14B1E04EBC30292E8030000223C
:1001B00085E80300A4F80034104638BD064B082239
:1001C000204605F0F9F80123B4F8001484F804344B
:1001D000E8E700BF580000204101000800207047F8
:1001E00010B582B00DF1050000F058F801281AD0C2
:1001F0000DF1060200219DF80500FFF789FFBDF80B
:100200000630002BEED00024E000FFF79DFF013404
:10021000BDF80630A4B2A342F6D80DF1050000F0F7
:100220003DF80128E4D10020FFF7B0FF032802D0F9
:1002300000235B68FFDE00F0BDF8D3E7014B002030
:10024000188270476004002038B5114D0446288A92
:100250000F2805D90F48104A4C2100F055F8288A7C
:1002600098B12A780A4BA2420DD0411E89B2194496
:1002700003E013F8012FA24205D08B42F9D1431CB1
:100280009BB22C542B82002038BD0123F9E700BF1C
:1002900060040020C45E0008AC5E0008074B1A8AA8
:1002A0004AB11A4412F8012C002102701A8A084639
:1002B000013A1A8270470121084670476004002005
:1002C0000020704700207047F8B50D4D0D4C0123FC
:1002D0002B7004F12006002723680020984700288F
:1002E00014BF01230023237104F1080418BF2F70E9
:1002F000B442F1D12B78002B0CBF04200020F8BDB4
:100300007204002018000020704700BF08B502F0FA
:100310007FFE012002F0DCFE212003F049F80028D6
:10032000FAD0012002F008FF002002F017FF0020A1
:1003300002F01EFF002002F025FF04F0E9FF00207C
:1003400008BD00BF30B585B0684602F025FF019BAF
:100350000A4AA2FB03239B09013BB3F1807F09D228
:10036000074A084CF02500200721536084F82350E9
:1003700090601160002005B030BD00BFD34D621009
:1003800010E000E000ED00E0014BD3E90001704710
:10039000780400200449D1E90023013243F100032D
:1003A000C1E90023704700BF780400200020704797
:1003B00000207047002070470020704708B50121D9
:1003C0004FF4006002F0AEFFBDE8084000214FF49A
:1003D000006002F0A7BF00BF034A536823F4C07354
:1003E00018435060704700BF002C004082B0084A9C
:1003F00000230193536800F07F0023F07F030193F3
:10040000019B18430190019B536002B0704700BFED
:10041000002C0040014B01221A607047A480054265
:10042000024B00F07F001860704700BF002C0040B6
:10043000024B40F080001860704700BF002C004065
:10044000024B9868003018BF01207047002C004014
:10045000014B00229A607047002C004008B5084B01
:10046000984200D008BD01214FF4007002F04CFF0B
:10047000BDE8084000214FF4007002F045BF00BF06
:100480000024014042680B6822F0407270B422F4EC
:1004900080720C79134343EA042343600E69CC68ED
:1004A00085688A68094B344322432B404C791343B7
:1004B00043EA440383600A7D036B013AD2B223F01E
:1004C000F87343EA0253036370BC7047FDF7FFC043
:1004D00000234FF040710122C16002750360037177
:1004E0004371836003617047034902684B6823F4DA
:1004F000403313434B6070470027014000230360E3
:10050000704700BF836819B923F001038360704707
:1005100043F0010383607047836819B923F0040333
:100520008360704743F004038360704743681AB9DF
:1005300023EA01014160704719434160704700BFE1
:10054000836823F0F003194381607047436823F404
:10055000400323F400731943416070478162C26213
:10056000704700BF436823F01F0319434160704781
:10057000054A536818B923F400035360704743F4E5
:1005800000035360704700BF002701401D2970B46D
:1005900021D9A1F11E0404EB4404C56D0726A64031
:1005A00003FA04F425EA06031C43C465062A23D98A
:1005B0000C2A3FD9122A64D9182A55D9193A046B42
:1005C00002EB82021F23934024EA03039140194364
:1005D000016370BC704713291CD9A1F1140404EB0A
:1005E0004404C5680726A64003FA04F425EA060376
:1005F0001C43062AC460DBD8013A02EB8202036C7A
:100600001F24944001FA02F223EA04010A4302641F
:1006100070BC704709291BD9A1F10A0404EB4404FA
:1006200005690726A64003FA04F425EA06031C43DD
:100630000461BBE7073A02EB8202C36B1F249440BC
:1006400001FA02F223EA04010A43C26370BC704754
:1006500001EB410445690726A64003FA04F425EAA4
:1006600006031C434461A1E7133A02EB8202436B89
:100670001F24944001FA02F223EA04010A43426370
:10068000E4E70D3A02EB8202836B1F24944001FAE7
:1006900002F223EA04010A43826370BC704700BF80
:1006A000836843F080438360704700BF8068C0F375
:1006B00080707047836819B923F480638360704742
:1006C00043F4806383607047836819B923F00203A1
:1006D0008360704743F002038360704743680139C9
:1006E00023F4604343EA413343607047436819B9D8
:1006F00023F400634360704743F400634360704732
:10070000806D80B2704700BF836819B923F480738D
:100710008360704743F4807383607047836819B9BE
:1007200023F400738360704743F400738360704761
:100730001D2970B42DD813291DD8092937D801EBEC
:10074000410445690726A64003FA04F425EA060396
:100750001C434461436C0232C3F30154121BD2B2F6
:1007600002EB82021F24944023EA040391401943C0
:10077000416470BC7047A1F1140404EB4404C568E3
:100780000726A64003FA04F425EA06031C43C460C6
:10079000E0E7A1F11E0404EB4404C56D0726A64062
:1007A00003FA04F425EA06031C43C465D2E7A1F169
:1007B0000A0404EB440405690726A64003FA04F47E
:1007C00025EA06031C430461C4E700BF436C0139FA
:1007D00023F4401343EA01534364704782B000237B
:1007E00001930190019B19440191019B1A6002B091
:1007F000704700BF836823F47023194381607047FA
:10080000836823F44013194381607047836843F47D
:1008100080038360704700BF8068C0F380507047DA
:10082000436819B923F480634360704743F48063DD
:1008300043607047436819B923F48053436070479D
:1008400043F480534360704782B0002301930190CA
:10085000019B303319440191019B186880B202B0AA
:10086000704700BFC9B201238B4041681AB921EA21
:100870000303436070470B434360704703681942AA
:1008800014BF012000207047C9430160704700BFBA
:100890004268006810EA112007D00123C9B203FAA8
:1008A00001F1114214BF1846002070476FEA112170
:1008B0000160704708B5174B984212D0164B98420A
:1008C0001BD0164B984200D008BD01214FF40040C8
:1008D00002F028FDBDE8084000214FF4004002F07E
:1008E00021BD01214FF4805002F00EFDBDE808400B
:1008F00000214FF4805002F007BD01214FF48040E9
:1009000002F010FDBDE8084000214FF4804002F0E5
:1009100009BD00BF0030014000380040003C0040ED
:100920004A8830B40C888B882243CC881A430B89C0
:1009300022434C898D891A4322430388CC892A4358
:10094000224303F4415313439BB20380838B0A8AEF
:1009500023F400631B041B0C838330BC02827047AA
:10096000838BF0B523F47B6323F00F031B04022277
:100970001B0C838302848B68868B934285B005466B
:100980000C46B6B236D08B886846002B14BF0227BF
:10099000012702F001FCE1880098B1F5007F2BD01F
:1009A0007A01B0FBF2F2A36802EB82025200B2FBC2
:1009B000F3F305339AB2154BA3FB0223DB085A0865
:1009C000901E03F00103FD2894BF42EA0323022393
:1009D000228867881643A08846F40066A2893E43B1
:1009E0000643194346EA020389B29BB22984AB83CA
:1009F00005B0F0BDC988EBE7020A02EB8202A368EA
:100A00005200B2FBF3F305339AB2D4E7CDCCCCCC91
:100A1000002307220282038043808380C3800381F6
:100A200043818381C3817047002302228260038057
:100A300043808380C3808381704700BF038829B9C6
:100A400023F040031B041B0C038070479BB243F050
:100A500040030380704700BF838B29B923F4806370
:100A60001B041B0C838370479BB243F48063838316
:100A7000704700BF038823F400631B041B0C038032
:100A800003889BB219430180704700BFB1F5804FC6
:100A9000038805D023F480431B041B0C038070479C
:100AA0009BB243F480430380704700BF4FF6FF635F
:100AB0009942038804D09BB243F48073038070474B
:100AC00023F480731B041B0C03807047838829B9AF
:100AD00023F004031B041B0C838070479BB243F07C
:100AE00004038380704700BF808980B2704700BFD5
:100AF00081817047038829B923F400531B041B0C20
:100B0000038070479BB243F400530380704700BFDB
:100B100003889BB243F4805303807047012914BFBC
:100B2000008B808A80B27047008A80B2704700BF15
:100B300083889BB21AB923EA010181807047194367
:100B4000818070470123090903FA01F1838889B282
:100B50009BB21AB923EA0101818070471943818051
:100B6000704700BF0389194214BF0120002070475D
:100B7000C94389B20181704710B484880389012276
:100B800001F00F009BB202FA00F0184006D00909EC
:100B9000A4B28A40144214BF0120002010BC704748
:100BA00001F00F01012303FA01F1C94389B2018168
:100BB000704700BF08B5344B98421FD0334B984262
:100BC00026D0334B98422DD0324B984234D0324B02
:100BD00098423BD0314B984242D0314B984249D059
:100BE000304B984200D008BD0121202002F07EFB4E
:100BF000BDE808400021202002F078BB0121084612
:100C000002F074FBBDE808400021012002F06EBB39
:100C10000121022002F06AFBBDE808400021022009
:100C200002F064BB0121042002F060FBBDE8084033
:100C30000021042002F05ABB0121082002F056FBDB
:100C4000BDE808400021082002F050BB012110201F
:100C500002F04CFBBDE808400021102002F046BB2A
:100C60000121402002F042FBBDE808400021402065
:100C700002F03CBB0121802002F038FBBDE80840B7
:100C80000021802002F032BB00000240000402403C
:100C900000080240000C0240001002400018024010
:100CA000001C02400014024000222DE9F0431346CC
:100CB0000F6801264FF0030E04E00133102B02F100
:100CC000020225D006FA03F434EA0705F5D10EFA3C
:100CD00002F86FEA080891F804C005680CFA02F9F6
:100CE00005EA08050CF1FF3C49EA0505BCF1010FD6
:100CF00005600FD9C568CC790EFA02FC944025EA4C
:100D00000C0501332C43102BC46002F10202D9D12F
:100D1000BDE8F083856891F805C008EA05080CFA7B
:100D200002F545EA08058560858891F806C0ADB2F0
:100D30000CFA03FC25EA04041FFA8CF52C4384808A
:100D4000D8E700BF4FF6FF720023026003714371C2
:100D50008371C371704700BF82B04FF48033019339
:100D6000019B0B430193019BC361C161019BC36163
:100D7000C3690193C369019302B07047038A1942A2
:100D800014BF012000207047008A80B2704700BF66
:100D9000838A194214BF012000207047808A80B2E4
:100DA000704700BF01837047418370470AB9418390
:100DB00070470183704700BF81827047838A9BB26E
:100DC00059408182704700BFCB0800EB830001F0DF
:100DD000070110B48900046A0F238B4024EA03033F
:100DE0000362036A8A4042EA0301016210BC704751
:100DF000014B00221A607047007C004030B4084C60
:100E0000056822684368816845EA030022F47C0390
:100E100023F4805340EA01021343236030BC70473F
:100E2000007C0040054A136818B923F010031360D2
:100E3000704743F010031360704700BF007C004010
:100E4000044B012818680CBFC0F3C010C0F3403039
:100E5000704700BF007C0040054A136818B923F0B2
:100E600020031360704743F020031360704700BFF6
:100E7000007C0040054A136818B923F4003313605E
:100E8000704743F400331360704700BF007C00409C
:100E9000054A136818B923F480331360704743F48C
:100EA00080331360704700BF007C0040044B002279
:100EB0006FF07F411A605A609A60DA60596170473A
:100EC00000040140837933B370B406681B4BF443CC
:100ED0001D68027925401D60596802F18042214059
:100EE000596002F582321468417934431460046811
:100EF0009868E54328409860DA68102902EA0502FC
:100F0000DA6013D001F1804303F582331A68144389
:100F10001C6070BC70470379016803F1804303F5DE
:100F200082331A6822EA01021A6070479A682243E3
:100F30009A60DA681443DC6070BC704700040140BA
:100F400000230C224271036003718371704700BF5C
:100F5000024A136918431061704700BF0004014042
:100F6000014B5861704700BF00040140034B5B69AF
:100F7000034214BF01200020704700BF000401405D
:100F8000FFF7F4BF014B5861704700BF00040140F8
:100F900070B143F2D2024FF0204343F8202080008A
:100FA00000F120406FF070434360C0F80431704797
:100FB00043F2DB024FF020431A60F0E7F0B44368DD
:100FC0008568C26845EA030103690A43416913431E
:100FD00082691943C3690A43016A1343426A194388
:100FE000836A0A43C66A04681343026B3343A4004E
:100FF000134304F12044082D23601DD0456BB6F542
:10100000804F2968AB696F6843EA0103AA6843EA25
:101010000711EF6841EA02222B69696942EA074237
:1010200042EA035343EA016363600AD06FF07043FE
:10103000C4F80431F0BC7047236843F040032360D8
:10104000DCE7806B8369016842681943856841EA7F
:101050000212036942EA0522416942EA035343EA64
:101060000163C4F80431F0BC704700BFF0B4816B79
:10107000446B0225456000230F22FF254FF4805763
:101080004FF400564762866203608360C360036169
:1010900043618361C3610362C3620363A36122602E
:1010A0006260E26022616261A5600A604A608D60F0
:1010B000CA600A614A618B61F0BC7047800000F130
:1010C0002040036819B923F001030360704743F01F
:1010D00001030360704700BF4FF6FE7203683A4990
:1010E0001A4088424FF0000302600360436083604F
:1010F000C36027D0354B98422AD0354B98422DD02B
:10110000344B984230D0344B984239D0334B9842CC
:101110003CD0334B98420FD0324B98423CD0324BAC
:1011200098423FD0314B984242D0314B984245D003
:10113000304B98421ED070472F4A536843F070637B
:10114000536070472C4A536843F00F035360704755
:10115000294A536843F0F00353607047264A5368A6
:1011600043F4706353607047234A536843F47043F9
:1011700053607047214A536843F470235360DAE7A1
:101180001D4A536843F47023536070471A4A5368EA
:1011900043F4700353607047184A536843F00F03D9
:1011A00053607047154A536843F0F003536070472B
:1011B000124A536843F47063536070470F4A536890
:1011C00043F4704353607047086002401C60024063
:1011D0003060024044600240586002406C6002404F
:1011E00080600240086402401C6402403064024097
:1011F00044640240586402400060024000640240BF
:101200000A6A70B48D680B692A434D6913438A6971
:101210001D43CB6945EA020402684D6A23438C6A88
:101220001D4322F4FF43CE684A682C4323F0700329
:101230000D682343036046608560C26070BC7047E0
:101240000023036043608360C36003614361836183
:10125000C361036243628362704700BF29B94FF6DE
:10126000FE730268134003607047036843F0010394
:101270000360704741607047406880B2704700BFAC
:1012800003681AB923EA010101607047194301603C
:10129000704700BFC30054BF034B044B1B6803429D
:1012A00014BF01200020704700600240006402402B
:1012B000FFF7F0BFC30054BF014B024B58607047AB
:1012C0000060024000640240FFF7F4BF014B186861
:1012D000000C7047002004E0024B1868C0F30B00BC
:1012E000704700BF002004E029B9054A536823EA8B
:1012F000000050607047024B5A68104358607047B6
:10130000002004E029B9054A936823EA00009060B0
:101310007047024B9A68104398607047002004E0C1
:1013200029B9054AD36823EA0000D0607047024B10
:10133000DA681043D8607047002004E008B5012146
:101340004FF0005001F0EEFFBDE8084000214FF0E3
:10135000005001F0E7BF00BF40F6FE7370B44C6868
:101360000D688A68074E2543CC6845EA0201326859
:101370002143834022EA030301FA00F0184330605E
:1013800070BC7047007400400023036043608360BA
:10139000C360704741B9084901220B6802FA00F0A6
:1013A00023EA000008607047034901220B6802FA33
:1013B00000F01843086070470074004049B90949BB
:1013C00000094B68012202FA00F023EA000048609D
:1013D0007047044900094B68012202FA00F01843E3
:1013E0004860704700740040054A536818B923F0FC
:1013F00003035360704743F003035360704700BF1B
:1014000000740040064B82B0002201920193019BC0
:10141000083318440190019B196002B0704700BF67
:1014200000740040064B82B0002201920193019BA0
:10143000143318440190019B196002B0704700BF3B
:10144000007400400828044B0CBF42EA012242EA23
:101450000142C250704700BF20740040074B82B069
:10146000002201920193019B2C3303EB9000019029
:10147000019B186880B202B0704700BF0074004042
:1014800049B909494FF480520B6802FA00F023EA87
:1014900000000860704704494FF480520B6802FA5C
:1014A00000F018430860704700740040054B81400D
:1014B00018681AB920EA01011960704701431960E0
:1014C000704700BF00740040FFF7F0BF034B81403E
:1014D0005B6B194214BF012000207047007400406C
:1014E000014B81405963704700740040054B8140B7
:1014F0001A685B6B11EA030003D00A4214BF012093
:101500000020704700740040014B814059637047D0
:101510000074004040F0BF60024B40F40030D860DF
:10152000704700BF00ED00E0C3785BB9037801218C
:101530005A09174803F01F03203201FA03F340F859
:1015400022307047134B30B4D9684578C943C1F392
:101550000221C1F1040482780F23E4B205FA04F4F5
:101560000B41E4B21340027823431B0102F16042B5
:10157000DBB202F5614282F800330378012203F006
:101580001F0003495B09824041F8232030BC7047AB
:1015900000E100E000ED00E021F0604121F07F017A
:1015A000014B08439860704700ED00E0044A13695E
:1015B00019B923EA000010617047184310617047A1
:1015C00000ED00E0044A042813680CBF43F0040354
:1015D00023F004031360704710E000E000217F2235
:1015E000FF2380E80E007047044B20B9CA21532224
:1015F00059625A627047FF225A62704700280040C1
:10160000002282B00E4B0192DA68520615D44FF0D8
:10161000FF321946DA6000E04AB9CA68019B02F05D
:10162000400201330193019BB3F5005FF4D1044BF9
:10163000D868C0F3801002B07047012002B0704734
:101640000028004038B5104CCA22532362626362FE
:101650000546FFF7D5FF98B1A368012023F04003AA
:10166000A360A2682B681343A360AB68236123695E
:101670006A6843EA02432361E36823F08003E3607E
:10168000014BFF225A6238BD00280040024AD3684D
:1016900023F08003D36070470028004010B4114B42
:1016A000532283B00024CA20019458625A62DA6837
:1016B000194622F0A002DA6000E04AB9CA68019B2C
:1016C00002F0200201330193019BB3F5004FF4D1E6
:1016D000044BFF22D8685A62C0F3401003B010BC1C
:1016E000704700BF0028004030B5204C83B0002573
:1016F000CA225323019562626362FFF781FFC0B182
:1017000042F2011325606360A368214603F00703DA
:10171000A36000E04AB9CA68019B02F004020133E9
:101720000193019BB3F5005FF4D1104BDA685207C7
:1017300005D400200D4BFF225A6203B030BD4FF696
:10174000FF700B4900229C689A60586119619A6188
:10175000DA611A62DA62DA635A649A64DA601A64E5
:10176000FFF79CFF003018BF0120E3E7002800408E
:10177000FF007F0038B50E4CCA22532362626362B9
:101780000546FFF73DFF50B1A36865B923F010038C
:10179000A360074A0120D36823F08003D360044B81
:1017A000FF225A6238BD43F01003A360F1E700BF87
:1017B000002800400A4B5322CA2159625A629A6893
:1017C00030B902F0DF029A60054BFF225A6270477F
:1017D00042F020029A60024BFF225A62704700BF1B
:1017E00000280040F8B53B4B002837D19E6816F022
:1017F00040065AD1CE700A78092A98BF002708D926
:1018000000230A3AD2B20133092ADBB2F9D81F0108
:10181000FFB248783A4309284FEA024755D90025D4
:101820000A38C0B201350928EDB2F9D82D01ECB261
:101830008978204309294FEA002048D900230A3932
:10184000C9B201330929DBB2F9D81A01D2B247EA89
:101850000604044341EA02031C430DE09C6814F0B3
:10186000400225D1CA7048780B788C78000240EA93
:101870000343234343EA0204164DCA2253236A62F8
:101880006B62FFF7BDFE60B104F07F3323F0FE43CF
:101890002B60EB6823F08003EB60AB689B060AD5F6
:1018A00001200C4BFF225A62F8BDCE783604A2E725
:1018B000CC782204D7E7FFF7F1FE064B00304FF05B
:1018C000FF0218BF01205A62F8BD0024B0E70022D1
:1018D000BDE700BF002800400023C37003704370C1
:1018E00083707047164BF0B51B6803F07F3323F00D
:1018F000FE43C3F30627DEB21B0C03F0400E03F0D9
:101900003F0581F803E00D704F708E70B8B93C0947
:1019100032092D0905EB850504EB840402EB8202F4
:1019200003F00F0307F00F0706F00F0603EB450364
:1019300007EB440406EB42020B704C708A70F0BD5A
:1019400000280040014B986A5B68704700280040FF
:1019500070B500283AD14878C20604D520F01000AE
:101960000A30C0B24870CB78092B98BF002608D93E
:1019700000220A3BDBB20132092BD2B2F9D81601A0
:10198000F6B2334309284FEA03464CD900220A38FD
:10199000C0B201320928D2B2F9D81501EDB28A7865
:1019A0002843092A4FEA00253FD900230A3AD2B238
:1019B0000133092ADBB2F9D81801C0B20B7802430F
:1019C00046EA43332B4343EA020409E04B78CC78E0
:1019D0001B028A7843EA04430C78134343EA4434F5
:1019E000134DCA2253236A626B62FFF709FE60B18E
:1019F00024F07F4323F0C0036B60EB6823F0800387
:101A0000EB60AB689B0604D50120094BFF225A62AC
:101A100070BDFFF743FE064B00304FF0FF0218BFCA
:101A200001205A6270BD0025B9E70020C6E700BF5B
:101A30000028004001230022C270037083704370AD
:101A4000704700BF164BF0B45B6823F07F4323F070
:101A5000C003C3F30724DDB2C3F3423704F01F060B
:101A60001B0C0F708D70CB704E70B8B936092A09F7
:101A70001809B70002EB820204F00F0405F00F050D
:101A80003E4400EB800003F00F0305EB420204EB41
:101A9000460403EB40038A704C70CB70F0BC704777
:101AA00000280040F0B53E4B00284DD19D6815F050
:101AB00040056FD1D5701378092B98BF002408D941
:101AC00000200A3BDBB20130092BC0B2F9D800017B
:101AD000C4B25078234309284FEA03435DD9002458
:101AE0000A38C0B201340928E4B2F9D82401E6B2B8
:101AF00094783043092C4FEA00274FF0000607D9AD
:101B00000A3CE4B20136092CF6B2F9D83601F6B235
:101B1000107B344309284FF0000607D90A38C0B2B9
:101B200001360928F6B2F9D83601F6B2D2F808E043
:101B3000526830434EEA020635431D4345EA070624
:101B4000264346EA006013E0986810F040031ED177
:101B5000D370506894689578044310782C43557876
:101B600044EA0044107B44EA052242EA006018433C
:101B70000B4B5322B1F5807F4FF0CA045C625A626E
:101B80000CBFD8611862064BFF225A62F0BDD078B4
:101B90000304DEE7D5782D048DE70026A8E700BF13
:101BA00000280040002301220273C37003704370B9
:101BB0008370836043607047254BB1F5807F0CBF15
:101BC000DB691B6A2DE9F047C3F30741C3F3072E16
:101BD000DFB21E0E03F0804901F03F0501F0400A1C
:101BE0000EF07F0407F07F0806F03F0C03F080330F
:101BF000157082F803A0547082F8028082F80CC03D
:101C0000C2F80890536008BB2D0924094FEA181048
:101C10004FEA1C1305EB850504EB840400EB800000
:101C200003EB830301F00F010EF00F0E07F00F0717
:101C300006F00F0601EB45010EEB440407EB4000F4
:101C400006EB43031170547090701373BDE8F08776
:101C50000028004070B4164B83B00026CA255324D8
:101C6000019602465D625C62E1B99868110A20EA59
:101C700002021C469A6000E042B9E268019B0A40F9
:101C800001330193019BB3F5005FF5D1084BDB688D
:101C90000B4214BF01200020054BFF225A6203B003
:101CA00070BC7047996801200A439A60F4E700BF4E
:101CB0000028004030B4084B0A43CA255324B0F52D
:101CC000807F5D625C620CBF5A649A64024BFF22A3
:101CD0005A6230BC704700BF00280040044BB0F58A
:101CE000807F0CBF586C986CC0F30E00704700BF2B
:101CF00000280040074BCA21532259625A629A6851
:101D0000FF2122F007029A609A6810439860596296
:101D1000704700BF00280040054B10B45321CA246F
:101D2000FF225C62596210BC58615A62704700BF62
:101D300000280040014B586980B2704700280040DD
:101D400010B4154B83B00024CA2153220194596268
:101D50005A62D0B99A68194622F480629A6000E00B
:101D60004AB9CA68019B02F0040201330193019B46
:101D7000B3F5005FF4D1084BD868C0F38000064B80
:101D8000FF225A6203B010BC70479A68012042F4E7
:101D900080629A60F3E700BF00280040084B10B44F
:101DA0005322CA245C625A629A68FF2422F4802279
:101DB0009A609A681143084398605C6210BC70474F
:101DC00000280040024B986800F48020704700BF54
:101DD00000280040084B10B45322CA245C625A62A7
:101DE0009A68FF2422F4E0029A609A68114308433B
:101DF00098605C6210BC70470028004070B50A4CC7
:101E0000CA2253236262636206460D46FFF7F8FB5F
:101E100030B13543A561E368012023F08003E3601E
:101E2000014BFF225A6270BD0028004038B50E4CAD
:101E3000CA225323626263620546FFF7E1FB50B199
:101E4000A36865B923F08003A360074A0120D36823
:101E500023F08003D360044BFF225A6238BD43F065
:101E60008003A360F1E700BF002800400A4B532223
:101E7000CA2159625A629A6830B922F400029A6003
:101E8000054BFF225A62704742F400029A60024BEF
:101E9000FF225A62704700BF00280040074BCA214A
:101EA000532259625A629A68FF2122F400229A60F2
:101EB0009A68104398605962704700BF002800403C
:101EC00030B4114DCA2453236C626B62EB68DC039F
:101ED0000AD5EB68DB0307D54FF4805301E0013BE3
:101EE00002D0EC68E403FAD4074BDC68E40308D4BE
:101EF0000A431043D8630120034BFF225A6230BCCF
:101F000070470020F8E700BF002800400B4B10B4DA
:101F10009B6823F4006323F0080351B90343074A85
:101F2000CA245320FF215462506210BC9360516256
:101F3000704743F400630343F1E700BF002800400B
:101F40002D4BF0B51F6B5B6B07F07F3727F0FE441E
:101F5000250CC4F3062623F07F434E7023F0C00403
:101F600005F03F060E704FF0000EC4F3042603F098
:101F70003F0305F04005C4F342348F70CD7082F802
:101F800003E0937056701470A8BB0C7848788B7877
:101F9000270906091D0906EB860605EB850507EBF3
:101FA000870704F00F0400F00F0003F00F0300EBAD
:101FB000460003EB450304EB47040C7048708B703C
:101FC00050789178137806090D091C0906EB8606EE
:101FD00000F00F0005EB850501F00F0104EB840410
:101FE00003F00F0300EB460001EB450103EB440354
:101FF000507091701370F0BD00280040014B986B39
:10200000704700BF00280040054A136C19B143EA2D
:1020100040001064704723EA40001064704700BF1E
:102020000028004029B9054A136C23EA0000106417
:102030007047024B1A6C1043186470470028004028
:10204000044B1A6C22F4C0521A641A6C10431864C0
:10205000704700BF00280040044B1A6C22F4E06275
:102060001A641A6C10431864704700BF00280040BF
:10207000044B1A6C22F4C0421A641A6C10431864A0
:10208000704700BF00280040054A136C18B923F0C0
:1020900080031364704743F080031364704700BFEC
:1020A00000280040054A136C18B943F40043136438
:1020B000704723F400431364704700BF00280040BA
:1020C000064B82B0002201920193019B03EB80003A
:1020D0000190019B196002B0704700BF502800407A
:1020E000064B82B0002201920193019B03EB80001A
:1020F0000190019B186802B0704700BF5028004053
:10210000044B1A6C22F480221A641A6C104318646F
:10211000704700BF0028004010B5184CCA22532356
:1021200062626362E3681A070AD5E3681B0707D592
:102130004FF4005301E0013B02D0E2681207FAD4E9
:102140000E4AD36813F0080313D19468E40604D54B
:1021500018460A4BFF225A6210BD0843D062FFF7AF
:102160009DFA064B00304FF0FF0218BF01205A6263
:1021700010BD024BFF2200205A6210BD0028004013
:10218000104B10B45322CA245C625A629A6879B91F
:1021900020F0040122EA01029A601A6C00F00400A7
:1021A00022EA00001864074BFF225A6210BC7047F5
:1021B00020F004010A439A601A6C00F004001043F6
:1021C0001864F0E700280040044A054BD268134029
:1021D000034214BF01200020704700BF00280040C8
:1021E0007FFF01000549064ACB68024003F08003E7
:1021F00042F0800263EA0203CB607047002800408F
:102200007FFF01000C4910B40A6C840C8B6820FA23
:1022100004F402F0040202EAD43203401343C96812
:1022200007D089B211EA101314BF0120002010BC9E
:102230007047184610BC704700280040054AC0F39C
:102240000F10D36840F0800003F0800363EA0000C1
:10225000D06070470028004008B501214FF0805041
:1022600001F060F8BDE8084000214FF0805001F017
:1022700059B800BF014B1860704700BF20000E42E4
:10228000034A136823F0E00318431060704700BF4F
:1022900000700040014B1860704700BF10000E42F4
:1022A000044B82B00344002201920193019B196008
:1022B00002B07047A0000E42014B1860704700BF8B
:1022C00028000E42014B1860704700BF24000E42E8
:1022D000044A136823F4C053184320F00C00106024
:1022E000704700BF00700040094B1A6838B922F4EB
:1022F00080421A601A6822F001021A60704742F0A8
:1023000001021A601A6842F480421A60704700BFE6
:102310000070004010B40B4C0B4A2368012923F0D5
:10232000030340EA03002060136923F004031361F0
:1023300004D040BF20BF20BF10BC704730BF10BCCE
:10234000704700BF0070004000ED00E010B40C4C7E
:102350000C4A2368012923F0030340EA03002060AC
:10236000136943F00403136107D020BF054A10BC72
:10237000136923F004031361704730BFF6E700BF11
:102380000070004000ED00E00549064A0B6843F08C
:1023900002030B60136943F00403136130BF7047FD
:1023A0000070004000ED00E0034B5B68034214BF87
:1023B00001200020704700BF00700040024A1368EF
:1023C00043EA80001060704700700040014B1860C5
:1023D000704700BF00300040014B5860704700BF9D
:1023E00000300040014B9860704700BF0030004053
:1023F0004AF6AA22014B1A60704700BF0030004025
:102400004CF6CC42014B1A60704700BF00300040D0
:10241000034BDB68184214BF01200020704700BF47
:10242000003000402DE9F0439046C26889B008AD05
:10243000046816BA4768826845F8106D284612BAD3
:10244000002624BA3FBA89461D460592079406978E
:10245000009602F03BF804230DEB03000196029670
:10246000039302F023F8012002F048F8B8F1000FBE
:1024700043D0374609F11004103554F8100C02F01F
:102480005DF854F80C0C02F059F854F8080C02F0FE
:1024900055F854F8040C02F051F8009700E090B998
:1024A000012002F07FF8009B01330093009BB3F5FD
:1024B000803FF4D138B90446002002F01FF82046CE
:1024C00009B0BDE8F083012002F076F802F03CF894
:1024D00045F8100C02F038F845F80C0C02F034F80E
:1024E00045F8080C02F030F81036B04545F8040CF9
:1024F00004F1100405F11005BFD80124DCE700BF8A
:102500002DE9F0439046C26889B008AD046816BA58
:102510004768826845F8106D284612BA002624BA2A
:102520003FBA89461D46059207940697009601F02A
:10253000CDFF042318220DEB0300029601920393B2
:1025400001F0B4FF012001F0D9FFB8F1000F43D032
:10255000374609F11004103554F8100C01F0EEFF65
:1025600054F80C0C01F0EAFF54F8080C01F0E6FFF7
:1025700054F8040C01F0E2FF009700E090B901204C
:1025800002F010F8009B01330093009BB3F5803FED
:10259000F4D138B90446002001F0B0FF204609B05C
:1025A000BDE8F083012002F007F801F0CDFF45F807
:1025B000100C01F0C9FF45F80C0C01F0C5FF45F8FF
:1025C000080C01F0C1FF1036B04545F8040C04F1C9
:1025D000100405F11005BFD80124DCE72DE9F04116
:1025E0000F469846C4688CB00CAE94FA84FE81689D
:1025F00046F820ED90E8300009BA94FA84FE30469F
:102600002DBA0026CDF81CE01446069505910096DB
:10261000129D01F05BFFFB680CA81BBA40F8103D4F
:102620003A687968BB6812BA09BA1BBA0B920A9168
:10263000099301F057FF042320220DEB03000196BC
:102640000292039301F032FF012001F057FFB8F12D
:10265000000F42D037461034103554F8100C01F0FA
:102660006DFF54F80C0C01F069FF54F8080C01F0F0
:1026700065FF54F8040C01F061FF009700E090B989
:10268000012001F08FFF009B01330093009BB3F505
:10269000803FF4D138B90446002001F02FFF2046D6
:1026A0000CB0BDE8F081012001F086FF01F04CFF85
:1026B00045F8100C01F048FF45F80C0C01F044FF00
:1026C00045F8080C01F040FF1036B04545F8040C01
:1026D00004F1100405F11005BFD80124DCE700BFA8
:1026E0002DE9F0410F469846C4688CB00CAE94FAC0
:1026F00084FE816846F820ED90E8300009BA94FA2B
:1027000084FE30462DBA0026CDF81CE0144606950E
:1027100005910096129D01F0D9FEFB680CA81BBA2A
:1027200040F8103D3A687968BB6812BA09BA1BBA1A
:102730000B920A91099301F0D5FE0423182120225F
:102740000DEB030001910292039301F0AFFE012013
:1027500001F0D4FEB8F1000F42D0374610341035E6
:1027600054F8100C01F0EAFE54F80C0C01F0E6FEEF
:1027700054F8080C01F0E2FE54F8040C01F0DEFEFF
:10278000009700E090B9012001F00CFF009B01339D
:102790000093009BB3F5803FF4D138B90446002084
:1027A00001F0ACFE20460CB0BDE8F081012001F044
:1027B00003FF01F0C9FE45F8100C01F0C5FE45F815
:1027C0000C0C01F0C1FE45F8080C01F0BDFE1036FE
:1027D000B04545F8040C04F1100405F11005BFD80C
:1027E0000124DCE72DE9F0410F469846C4688CB01F
:1027F0000CAE94FA84FE816846F820ED90E8300033
:1028000009BA94FA84FE30462DBA0026CDF81CE0B1
:102810001446069505910096129D01F057FEFB683F
:102820000CA81BBA40F8103D3A687968BB6812BA28
:1028300009BA1BBA0B920A91099301F053FE0423C3
:1028400040220DEB030001960292039301F02EFE4D
:10285000012001F053FEB8F1000F42D0374610348A
:10286000103554F8100C01F069FE54F80C0C01F00E
:1028700065FE54F8080C01F061FE54F8040C01F0F8
:102880005DFE009700E090B9012001F08BFE009BF7
:1028900001330093009BB3F5803FF4D138B904466F
:1028A000002001F02BFE20460CB0BDE8F081012095
:1028B00001F082FE01F048FE45F8100C01F044FEE4
:1028C00045F80C0C01F040FE45F8080C01F03CFE08
:1028D0001036B04545F8040C04F1100405F110055C
:1028E000BFD80124DCE700BF2DE9F0410F46984630
:1028F000C4688CB00CAE94FA84FE816846F820ED72
:1029000090E8300009BA94FA84FE30462DBA0026C9
:10291000CDF81CE01446069505910096129D01F035
:10292000D5FDFB680CA81BBA40F8103D3A687968E1
:10293000BB6812BA09BA1BBA0B920A91099301F04B
:10294000D1FD0423182140220DEB030001910292D6
:10295000039301F0ABFD012001F0D0FDB8F1000FB1
:1029600042D037461034103554F8100C01F0E6FD13
:1029700054F80C0C01F0E2FD54F8080C01F0DEFDF7
:1029800054F8040C01F0DAFD009700E090B9012042
:1029900001F008FE009B01330093009BB3F5803FDC
:1029A000F4D138B90446002001F0A8FD20460CB04F
:1029B000BDE8F081012001F0FFFD01F0C5FD45F803
:1029C000100C01F0C1FD45F80C0C01F0BDFD45F8FF
:1029D000080C01F0B9FD1036B04545F8040C04F1BF
:1029E000100405F11005BFD80124DCE708B50D4B34
:1029F000012198420AD04FF4800000F093FCBDE81A
:102A0000084000214FF4800000F08CBC4FF400100F
:102A100000F088FCBDE8084000214FF4001000F0F1
:102A200081BC00BF00540040F0B504460D4685B09F
:102A30008688684600F0B0FB314F029B26F03F06C7
:102A4000A7FB03273604BF0C360CB8B20643A6809A
:102A500021882A6821F001012A4E0904090CB2429A
:102A6000218024D85200B3FBF2F39BB2032B00F178
:102A7000010098BF04232084A3832188AE8889B2F3
:102A800041F00101218023886A8923F4816323F0C6
:102A90000203A88929891B0432431B0C134340EA13
:102AA00001029BB292B22380228105B0F0BD4BF6A9
:102AB000FF71E88888421DD002EB820202EB82029D
:102AC000B3FBF2F39BB243F48043C3F30B020AB9A6
:102AD00043F001034FF4967202FB07F70A4AF91715
:102AE00082FB0702C1EBA212013292B243F400430F
:102AF0002284C1E702EB4200B3FBF0F39BB2E4E7B0
:102B000083DE1B43A0860100D34D621010B44BF648
:102B1000FF7141F2883400234FF480420460C18089
:102B2000828183800381438110BC7047038829B967
:102B300023F001031B041B0C038070479BB243F07E
:102B400001030380704700BF038829B923F4807311
:102B50001B041B0C038070479BB243F480730380FB
:102B6000704700BF038829B923F400731B041B0CB2
:102B7000038070479BB243F400730380704700BF2B
:102B8000038829B923F480631B041B0C038070475E
:102B90009BB243F480630380704700BF838901F0D8
:102BA000FE019BB223F0FE0319438181704700BFF1
:102BB000838929B923F001031B041B0C838170470F
:102BC0009BB243F001038381704700BF038829B99A
:102BD00023F040031B041B0C038070479BB243F09F
:102BE00040030380704700BF038819B9C3F30E0385
:102BF000038070476FEA43436FEA53439BB20380FD
:102C0000704700BFB1F5005F038805D023F400537F
:102C10001B041B0C038070479BB243F400530380DA
:102C2000704700BF038829B923F010031B041B0C55
:102C3000038070479BB243F010030380704700BFCE
:102C4000038829B123F080031B041B0C0380704709
:102C50009BB243F080030380704700BFB1F5804F03
:102C6000838B05D023F480431B041B0C83837047A4
:102C70009BB243F480438383704700BF22B901F0C5
:102C8000FE0189B20182704741F0010189B20182DF
:102C9000704700BF01827047008AC0B2704700BF12
:102CA000038829B923F480531B041B0C038070474D
:102CB0009BB243F480530380704700BFB1F5006FAF
:102CC000038805D023F400631B041B0C03807047AA
:102CD0009BB243F400630380704700BFFFF7EEBF71
:102CE000038829B923F020031B041B0C03807047C1
:102CF0009BB243F020030380704700BF008BC0F3FA
:102D000007207047838829B923F400631B041B0C38
:102D1000838070479BB243F400638380704700BF99
:102D2000838829B923F480531B041B0C83807047CC
:102D30009BB243F480538380704700BF82B000236E
:102D400001930190019B19440191019B188880B265
:102D500002B0704783889BB21AB923EA01018180CF
:102D60007047194381807047838A008B9BB243EA86
:102D7000004321F07F4203EA0200401AB0FA80F0DB
:102D800040097047838A028B98B240EA024020F0E3
:102D90007F40704782B000230A0F00930193019097
:102DA0000092009B21F07F4153B1019B14330193AA
:102DB000019B1B68194214BF0120002002B070471C
:102DC000019B090C18330193F2E700BFC94389B294
:102DD000818270478388808A9BB280B2084006D087
:102DE00003F4E06313EA114314BF0120002070478D
:102DF000C94389B28182704708B501214FF4006050
:102E000000F082FABDE8084000214FF4006000F0B5
:102E10007BBA00BF30B44268094D8168C368114372
:102E200004686A680B4301691C4322F4FD43214393
:102E3000027D23F07F030B4313436B6030BC70476C
:102E4000002C014000230375036043608360C3606E
:102E500003617047014B1860704700BFA080254296
:102E6000014B1860704700BF002C0140024B1868EE
:102E700000F00300704700BF002C0140014B1860B8
:102E8000704700BF8C85254203680A4930B48B60C7
:102E900044688368C568CA682343006943EA050437
:102EA00022F4FF6323F0070344EA00021343CB60DC
:102EB00030BC7047002C01400023036043608360F6
:102EC000C3600361704700BF014B1869C0B270470F
:102ED000002C0140044B82B0034400220192019374
:102EE000019B186802B07047142C01400368094A1E
:102EF00010B45362436800F1080193621AC9406933
:102F00001943D36A2143014323F0F7030B43D362F0
:102F100010BC7047002C014000234FF0FF3280E8C6
:102F20000C008360C360036143617047014B186B01
:102F3000704700BF002C0140014BD3F88000704760
:102F4000002C0140014BC3F880007047002C014069
:102F5000014B986C704700BF002C0140014B18607A
:102F6000704700BFA0852542014B1860704700BF25
:102F7000A4852542014B1860704700BFA8852542F3
:102F8000014B1860704700BFAC852542014B1860AB
:102F9000704700BFAC812542014B1860704700BFED
:102FA000B081254200F00100024B80F00100186062
:102FB000704700BFB4812542014B1860704700BFC5
:102FC000B881254229B9054AD36B23EA0000D063B2
:102FD0007047024BDA6B1043D8637047002C0140F6
:102FE000014B9863704700BF002C0140034B5B6BA3
:102FF000034214BF01200020704700BF002C014095
:10300000FFF7F4BF014B9863704700BF002C0140ED
:103010000C4B0D4A1968002041F4807119609968C1
:103020000A409A601A6822F0885222F001121A604F
:103030001A6822F480221A609A6822F47D029A604B
:10304000D8607047003802400CC0FF88024B002255
:103050001A701870704700BF0238024082B0002317
:103060000A4A019302E0B3F5A04F08D0136813F4A5
:10307000003F019B03F101030193019BF3D0034B3C
:103080001868C0F3404002B0704700BF00380240EB
:10309000014B1870704700BF07380240034A53685D
:1030A00023F4604318435060704700BF003802406B
:1030B000014B1860704700BF20004742034A536825
:1030C00023F4F85343EA0020506070470038024070
:1030D000014B1860704700BF00004742024B0022BE
:1030E0001A701870704700BF35380240014B1860E5
:1030F000704700BF800647420243024B11431970DC
:10310000704700BF0A380240014B1860704700BF8B
:1031100060004742014B1860704700BF7000474293
:10312000014B1860704700BFAC064742014B01439A
:10313000197070470B380240034A936823F0030369
:1031400018439060704700BF00380240024B9868F7
:1031500000F00C00704700BF00380240034A93683B
:1031600023F0F00318439060704700BF003802401E
:10317000034A936823F4E06318439060704700BFEC
:1031800000380240034A936823F4605343EAC000C6
:103190009060704700380240284B30B49B6803F0C1
:1031A0000C030C2B08D8DFE803F0070707072F07ED
:1031B00007072B0707073300204B4FF400425B68DB
:1031C0001F4CC3F34233013302FA03F303601B4D78
:1031D000AA68C2F303122244127BD3404360A96859
:1031E000C1F3022121440A7B23FA02F28260AA6819
:1031F000C2F3C2222244127B30BCD340C36070476A
:10320000104B0F4C0360E2E70F4B0D4C0360DEE701
:103210000A4A0B4C91689368C1F38341615C9568DD
:10322000C3F381535A1CCBB2E90354BF0649054985
:1032300001FB03F3B3FBF2F30360C8E7003802407D
:103240003800002000127A000024F40010B400F4CA
:103250004034B4F5403F07D1084A00F0C04013683D
:1032600023F0C04318431060044B596B21F44031E4
:1032700059635A6B22435A6310BC704700380240AE
:10328000014B1860704700BFD8064742014B1860D9
:10329000704700BFDC06474229B9054AD36923EAD3
:1032A0000000D0617047024BDA691043D861704763
:1032B0000038024029B9054A136A23EA0000106267
:1032C0007047024B1A6A1043186270470038024078
:1032D00029B9054A536A23EA000050627047024B3D
:1032E0005A6A1043586270470038024029B9054AAB
:1032F000136923EA000010617047024B1A691043FA
:10330000186170470038024029B9054A536923EA19
:10331000000050617047024B5A6910435861704772
:103320000038024029B9054A936923EA00009061F8
:103330007047024B9A691043986170470038024009
:1033400029B9054A936A23EA000090627047024B4C
:103350009A6A1043986270470038024029B9054ABA
:10336000D36A23EA0000D0627047024BDA6A104346
:10337000D86270470038024029B9054A136B23EA26
:10338000000010637047024B1A6B104318637047BC
:103390000038024029B9054A137823EA000010706A
:1033A0007047024B1A781043187070470D3802406E
:1033B0004309012B054B00F01F000CBF1B685B6B22
:1033C00023FA00F000F00100704700BF003802400F
:1033D000024A536B43F080735363704700380240D6
:1033E000034BDB68184214BF01200020704700BF68
:1033F00000380240014B1870704700BF0E38024081
:10340000034A136823F0010318431060704700BF9C
:10341000003C0240054A136818B923F00203136008
:10342000704743F002031360704700BF003C024046
:10343000054A136818B923F004031360704743F07A
:1034400004031360704700BF003C0240054A136844
:1034500018B923F008031360704743F008031360A2
:10346000704700BF003C0240084B5A68910707D5DF
:103470005A68D20705D4054B0549064A19611A61F5
:1034800070470549054AD960DA60F4E7003C02401C
:10349000BFAE9D8C16151413EFCDAB890504030246
:1034A000024A536843F0020353607047003C0240F5
:1034B000044B5A68D20703D50349044AD960DA603D
:1034C000704700BF003C0240EFCDAB89050403020A
:1034D000024A536843F0010353607047003C0240C6
:1034E000054A536818B923F480735360704743F456
:1034F00080735360704700BF003C0240084B5A681D
:10350000510707D55A68D20705D4054B0549064A25
:1035100059615A6170470549054AD960DA60F4E794
:10352000003C0240C8D9EAFB27262524EFCDAB8911
:1035300005040302024A536843F0040353607047D2
:10354000003C0240024A536843F4802353607047B2
:10355000003C0240024BD869C0F30750704700BFDF
:10356000003C0240014B186A704700BF003C02401B
:10357000014BD3F880007047003C0240014BD3F868
:1035800084007047003C0240014BD3F8880070472C
:10359000003C0240034BD869C0B2AA3818BF0120D2
:1035A000704700BF003C0240024BD869C0F30020C6
:1035B000704700BF003C0240024BD869C0F3034093
:1035C000704700BF003C024029B9054A536823EA0E
:1035D000000050607047024B5A68104358607047B3
:1035E000003C0240034B9B69034214BF01200020B2
:1035F000704700BF003C0240014B9861704700BF1C
:10360000003C0240084B9A69D1070BD49A69D20555
:1036100001D5022070479B6913F4F05F14BF0320AB
:103620000420704701207047003C024010B504237D
:1036300082B08DF807300446FFF7E4FF8DF80700ED
:103640009DF80730012B09D16CB1FFF7DBFF8DF836
:1036500007009DF80730013C012BF5D01CB19DF807
:10366000070002B010BD05238DF807309DF8070054
:1036700002B010BD38B505464FF40040FFF7D6FF45
:10368000042800D038BD0C4C002263684FF4004081
:1036900043F400736360636843F0080363602A6067
:1036A000FFF7C4FF636823F008036360636823F4D3
:1036B0000073636038BD00BF003C024010B5044693
:1036C0004FF40040FFF7B2FF042804BF002323702B
:1036D00010BD00BF10B504464FF40040FFF7A6FF31
:1036E000042804BF0023238010BD00BF10B504468A
:1036F0004FF40040FFF79AFF042804BF0023236023
:1037000010BD00BF38B504464FF400400D46FFF72A
:103710008DFF042800D038BD054A4FF4004053689F
:1037200023F4807353602560BDE83840FFF77EBF07
:10373000003C024070B504464FF400400D46FFF7D0
:1037400075FF042800D070BD124A536823F48073BB
:103750005360BDB904F0030624F003042368FF227C
:10376000F60002FA06F64FF4004023EA0606FFF7D9
:103770005DFF042808BF256031462046BDE8704043
:10378000FFF7C0BF25704FF40040BDE87040FFF761
:103790004DBF00BF003C024070B505464FF40040ED
:1037A0000E46FFF743FF0428044601D0204670BDB3
:1037B000184A536823F4807353601EBB05F003035B
:1037C000032B16D04FF6FF7425F003052A68DB00A3
:1037D00004FA03F34FF4004022EA0304FFF726FF44
:1037E000042808BF2E6021462846BDE87040FFF738
:1037F00089BF31462846FFF79DFF3146681CFFF719
:1038000099FFD3E72E804FF40040BDE87040FFF7EA
:103810000DBF00BF003C024070B504464FF40040AD
:103820000D46FFF703FF042800D070BDBDB904F0BA
:10383000030624F003042368FF22F60002FA06F6CA
:103840004FF4004023EA0606FFF7F0FE042808BF05
:10385000256031462046BDE87040FFF753BF257014
:103860004FF40040BDE87040FFF7E0BE70B505467C
:103870004FF400400E46FFF7D9FE0428044601D05D
:10388000204670BD1EBB05F00303032B16D04FF678
:10389000FF7425F003052A68DB0004FA03F34FF4F4
:1038A000004022EA0304FFF7C1FE042808BF2E608F
:1038B00021462846BDE87040FFF724BF3146284620
:1038C000FFF738FF3146681CFFF734FFD8E72E803A
:1038D0004FF40040BDE87040FFF7A8BE38B504467D
:1038E0004FF400400D46FFF7A1FE042800D038BD7C
:1038F00025604FF40040BDE83840FFF797BE00BF99
:10390000FFF7ECBF38B504464FF400400D46FFF713
:103910008DFE042800D038BDADB9E4430E498B6854
:10392000CA6823409BB202EA1444D843E24343EA04
:10393000004344EA02448B604FF40040CC60BDE891
:103940003840FFF773BE04498A68CB68224343EAD4
:103950001444A4B293B2E8E70000F81F38B5044657
:103960004FF400400D46FFF761FE042800D038BD3B
:10397000ADB9E4430E490B694A6923409BB202EAA0
:103980001444D843E24343EA004344EA02440B614F
:103990004FF400404C61BDE83840FFF747BE044992
:1039A0000A694B69224343EA1444A4B293B2E8E79C
:1039B0000000F81F38B504464FF400400D46FFF7ED
:1039C00035FE042800D038BDADB9E4430E498B69FB
:1039D000CA6923409BB202EA1444D843E24343EA53
:1039E000004344EA02448B614FF40040CC61BDE8DF
:1039F0003840FFF71BBE04498A69CB69224343EA7A
:103A00001444A4B293B2E8E70000F81F38B50446A6
:103A10004FF400400D46FFF709FE042800D038BDE2
:103A2000CDB9E4431149D1F88030D1F88420234046
:103A30009BB202EA1444D843E24343EA004344EA17
:103A40000244C1F880304FF40040C1F88440BDE822
:103A50003840FFF7EBBD0549D1F88020D1F884301C
:103A6000224343EA1444A4B293B2E4E70000F81FEF
:103A700010B504464FF40040FFF7D8FD084A04286B
:103A8000138807D19BB223F0FF032343DC4343EAAF
:103A9000044313604FF40040BDE81040FFF7C6BD7B
:103AA0000000F81F38B504464FF400400D46FFF7FC
:103AB000BDFD042800D038BDADB90F498A68CB6878
:103AC000224343EA1444A4B293B2D843E24343EA04
:103AD000004344EA02448B604FF40040CC60BDE8F0
:103AE0003840FFF7A3BDE44303498B68CA6823400D
:103AF0009BB202EA1444E8E70000F81F38B5044618
:103B00004FF400400D46FFF791FD042800D038BD6A
:103B1000ADB90F490A694B69224343EA1444A4B280
:103B200093B2D843E24343EA004344EA02440B61C0
:103B30004FF400404C61BDE83840FFF777BDE443E7
:103B400003490B694A6923409BB202EA1444E8E73F
:103B50000000F81F10B504464FF40040FFF766FD63
:103B6000074A0428137805D1DBB22343D94343EA3B
:103B7000014313604FF40040BDE81040FFF756BD0D
:103B80000000F81FF8B50E4B06464FF400400F46F4
:103B90001446DD69FFF74AFD04280AD147EA04000C
:103BA0003043C5F303440443E243064B44EA024472
:103BB0005C604FF40040BDE8F840FFF737BD00BF40
:103BC000003C02400000F81F38B50C4B04464FF48F
:103BD0000040DD69FFF72AFD042808D12D0C05F00F
:103BE000F0052C43E243064B44EA02445C604FF488
:103BF0000040BDE83840FFF719BD00BF003C02405F
:103C00000000F81F38B50B4B04464FF40040DD6947
:103C1000FFF70CFD042807D1C5F306452C43E2430A
:103C2000054B44EA02445C604FF40040BDE8384074
:103C3000FFF7FCBC003C02400000F81F08B5012162
:103C40000846FFF761FBBDE8084000210120FFF7AF
:103C50005BBB00BF044B00221A605A609A60DA60B6
:103C60001A615A619A617047047C0040014B1860E8
:103C7000704700BF00000140024B186800F440701C
:103C8000704700BF00000140054A536818B923F08F
:103C900001035360704743F001035360704700BF56
:103CA0000000014001F0FC0303F1804303F5803381
:103CB00001F0030110B489009C680F228A4024EAB5
:103CC00002029A609A6888401043986010BC70475E
:103CD000034A136823F4403318431060704700BF51
:103CE000047C00400F4B42031B6843EA000344BFBF
:103CF00023F00F030B43020344BF23F0F00343EA16
:103D00000113C20244BF23F4706343EA0123820219
:103D100048BF23F47043034A48BF43EA01331360AA
:103D2000704700BF047C004029B9054A136823EAA4
:103D3000000010607047024B1A681043186070470B
:103D4000007C0040044A136811B9184310607047A2
:103D500023EA000010607047007C0040C30F0C4A4B
:103D600020F0004021B14BB15368184350607047B8
:103D700043B9936823EA0000906070479368184342
:103D800090607047536823EA00005060704700BF9E
:103D9000047C0040054A536818B923F0004353607F
:103DA000704743F000435360704700BF047C0040FD
:103DB000012810D0022815D003281BD0042832D0A7
:103DC000052829D0062841D0002A39D12C4A9369E8
:103DD000194391617047A2B1294AD36823EA0101CE
:103DE000D160704792B1C943254AD36803EA0141C3
:103DF000D1607047FAB1224A136923EA01011161C7
:103E000070471F4AD3681943D16070471C4AD36872
:103E100043EA0141D160704732B3194A536923EA3A
:103E2000010151617047CAB1C943154A136903EAD8
:103E3000014111617047124A1369194311617047BA
:103E40000F4A936923EA0101916170478AB1C9431E
:103E50000B4A536903EA014151617047084A1369EB
:103E600043EA014111617047054A536919435161A1
:103E70007047034A536943EA01415161704700BFEB
:103E8000047C0040014B01229A60704700300240E0
:103E9000014B1860186870470030024039B1054A7C
:103EA00000EB810150F8043B88421360FAD1014BCA
:103EB0001868704700300240014B1868704700BF17
:103EC00000300240014B1871704700BF00300240C3
:103ED000014B1879704700BF0030024008B5264BEF
:103EE000984218D0254B984221D0254B98422AD091
:103EF000244B984233D0244B984200D008BD012176
:103F00004FF48010FFF70EFABDE8084000214FF48F
:103F10008010FFF707BA01214FF48040FFF7F4F952
:103F2000BDE8084000214FF48040FFF7EDB90121C2
:103F30004FF40030FFF7F6F9BDE8084000214FF4D8
:103F40000030FFF7EFB901214FF48020FFF7EAF9C5
:103F5000BDE8084000214FF48020FFF7E3B90121BC
:103F60004FF40020FFF7DEF9BDE8084000214FF4D0
:103F70000020FFF7D7B900BF0038014000440040DF
:103F800000480040004C00400050004030B504465E
:103F90000D46038ACA889BB223F44053134303821D
:103FA00082890B8988884989034392B20B4322F4A2
:103FB000B05222F00C029BB21343A381A38AAA89B8
:103FC0009BB223F4407385B01343A3826846FFF786
:103FD000E3F803991A48029BA289844208BF0B4662
:103FE00012F4004F2A6803EB830314BF52009200BF
:103FF00003EB8303B3FBF2F3124DA189A5FB03206E
:104000006422400900FB12330A044FEA00100AD46C
:104010001A013232A5FB0223C3F3431303439BB2BD
:10402000238105B030BDD9003231A5FB0131C1F388
:10403000421242EA00039BB2238105B030BD00BFAB
:10404000003801401F85EB5100234FF416510C221C
:10405000016042818380C38003818381704700BFF8
:104060004B880A8810B48C881A43C988038A224373
:104070000A439BB292B223F470631343038210BCD1
:10408000704700BF0023038043808380C380704754
:10409000838929B923F400531B041B0C83817047C7
:1040A0009BB243F400538381704700BF038B03F43A
:1040B0007F430383038B9BB219430183704700BF87
:1040C000838919B9C3F30E03838170476FEA4343B1
:1040D0006FEA53439BB28381704700BF838A29B93B
:1040E00023F400631B041B0C838270479BB243F4D0
:1040F00000638382704700BFC1F30801818070476D
:104100008088C0F308007047038A23F00F031B0464
:104110001B0C0382038A9BB219430182704700BFC4
:10412000838929B923F002031B041B0C8381704788
:104130009BB243F002038381704700BF838923F45D
:1041400000631B041B0C838183899BB2194381810B
:10415000704700BF038A23F020031B041B0C03825B
:10416000038A9BB219430182704700BF038A29B9B1
:1041700023F480431B041B0C038270479BB243F45F
:1041800080430382704700BF83899BB243F00103E1
:1041900083817047838A29B923F008031B041B0C11
:1041A000838270479BB243F008038382704700BF4D
:1041B000038BDBB20383038B9BB243EA01210183B0
:1041C000704700BF838A29B923F020031B041B0C0E
:1041D000838270479BB243F020038382704700BF05
:1041E000838A29B923F010031B041B0C83827047B8
:1041F0009BB243F010038382704700BF838A23F091
:1042000004031B041B0C8382838A9BB219438182A3
:10421000704700BF838A29B923F002031B041B0CDB
:10422000838270479BB243F002038382704700BFD2
:10423000838A9BB21AB923EA01018182704719432C
:104240008182704710B401F01F04C1F342110123B1
:10425000012903FA04F30FD002290CBF10301430E7
:104260002AB9026810BC22EA03030360704702689F
:1042700010BC1343036070470C30F1E70388194208
:1042800014BF012000207047C94389B201807047E4
:10429000C1F3421210B4012301F01F04012A03FAF2
:1042A00004F315D0022A0CBF028A828A92B213400C
:1042B000028892B24BB10123090A03FA01F10A42C2
:1042C00014BF1846002010BC7047184610BC704739
:1042D000828992B21340EBE7090A012303FA01F144
:1042E000C94389B20180704708B501214FF40070BD
:1042F000FFF718F8BDE8084000214FF40070FFF701
:1043000011B800BF47F6FF72124B70B45C681946D3
:1043100024F07F745C605E680568446835432C4314
:104320005C609B6803F0200323B98B68013A03F0BB
:104330002003F9D1074B1A6822F07E021A6019682F
:104340008268C4680A43016922430A431A6070BC48
:10435000704700BF00240040002303604360836077
:10436000C3600361704700BF014B1860704700BF16
:104370000080044247F6FF7205498B6803F0200372
:1043800023B98B68013A03F02003F9D1704700BFCD
:1043900000240040014B1860704700BF8080044239
:1043A000014B1860704700BF1C800442044B5A68E0
:1043B00022F070025A605A6810435860704700BF7C
:1043C00000240040044B5A6822F460725A605A6814
:1043D00010435860704700BF00240040044A5368EF
:1043E00023F478335360536819430843506070478F
:1043F00000240040044B5A6822F4E0525A605A6884
:1044000010435860704700BF00240040024B8000FA
:1044100003445960704700BF10240040014B012243
:104420001A6070470881044229B9054A536823EA93
:10443000000050607047024B5A6810435860704744
:1044400000240040034B9B68034214BF012000205E
:10445000704700BF00240040014BD860704700BF88
:1044600000240040064A9368034005D05368184270
:1044700014BF01200020704718465368704700BFE2
:1044800000240040014BD860704700BF002400406A
:1044900008B501214FF00060FEF728FFBDE8084095
:1044A00000214FF00060FEF721BF00BF30B4064C82
:1044B00005684268236881682A430A4323F07E0323
:1044C0001343236030BC7047000006500268044B61
:1044D0001A6142685A6182689A61C268DA617047FB
:1044E000000006500268044B1A6242685A628268F1
:1044F0009A62C268DA62704700000650054A136883
:1045000018B923F001031360704743F001031360EF
:10451000704700BF000006500023036043608360C3
:10452000704700BF0023036043608360C36070472F
:104530000023036043608360C3607047014B986051
:10454000704700BF00000650014BD868704700BF9D
:1045500000000650044B1A6902605A6942609A6969
:104560008260DB69C360704700000650044B1A6A22
:1045700002605A6A42609A6A8260DB6AC36070476E
:104580000000065029B9054A136823EA00001060AC
:104590007047024B1A6810431860704700000650BD
:1045A000FFF7F0BF034B5B68034214BF01200020FC
:1045B000704700BF00000650044A012813680CBF72
:1045C00043F0800343F4807313607047000006508B
:1045D0000B4AB0F5007F136851680AD0106810F4D8
:1045E000806005D0536813F0060F14BF012000202F
:1045F000704713F40070FBD001F00100704700BF5A
:1046000000000650024A136843EA900010607047A9
:1046100000000650B0F1804F08B522D0394B9842C7
:1046200029D0394B984230D0384B984237D0384B4C
:1046300098423ED0374B984245D0374B98424CD0A9
:10464000364B984253D0364B984200D008BD0121DA
:104650001020FEF759FEBDE8084000211020FEF7AB
:1046600053BE01210846FEF75DFEBDE8084000216B
:104670000120FEF757BE01210220FEF753FEBDE8E0
:10468000084000210220FEF74DBE01210420FEF764
:1046900049FEBDE8084000210420FEF743BE012189
:1046A0000820FEF73FFEBDE8084000210820FEF785
:1046B00039BE01211020FEF735FEBDE8084000217B
:1046C0001020FEF72FBE01212020FEF72BFEBDE8B3
:1046D000084000212020FEF725BE01210420FEF71E
:1046E00013FEBDE8084000210420FEF70DBE0121A5
:1046F0000820FEF709FEBDE8084000210820FEF76B
:1047000003BE00BF0004004000080040000C004051
:10471000001000400014004000080140000C01405F
:10472000001001400388B0F1804F10B49BB21FD03D
:10473000124A90421CD002F58062904218D002F5D5
:104740008062904214D00E4A904208D002F58062F6
:10475000904204D023F440730A899BB213434C68FF
:10476000098801220380C462018510BC82827047DF
:104770004A8823F070031343E5E700BF00040040BC
:104780000010004000234FF0FF324260038003819D
:104790004380704701858282704700BF038823F001
:1047A00070031B041B0C1943018070474162704762
:1047B000C1627047406A7047008D80B2704700BF89
:1047C000038829B923F002031B041B0C03807047E4
:1047D0009BB243F002030380704700BF038829B9EE
:1047E00023F004031B041B0C038070479BB243F0AF
:1047F00004030380704700BF038829B923F08003B6
:104800001B041B0C038070479BB243F080030380A2
:10481000704700BF038823F008031B041B0C0380B0
:1048200003889BB219430180704700BF038823F4BB
:1048300040731B041B0C038003889BB21943018047
:10484000704700BF038829B923F001031B041B0C28
:10485000038070479BB243F001030380704700BFA1
:10486000028C0B8922F001021204120C028430B473
:10487000058C048B4A8825F002052D0424F073046E
:104880002D0C134324040A882B434968240C144339
:104890009BB241630483038430BC7047028C70B4C4
:1048A00022F010021204120C0E890284028C048B76
:1048B00022F020031B0424F4E0420D884C881B0CDA
:1048C000120443EA0613120C496842EA052243EA3D
:1048D000041392B29BB2816370BC0283038470475D
:1048E000028C70B422F480721204120C0E890284BD
:1048F000028C848B22F400731B044D8824F0700218
:104900001B0C0C8843EA06231204496843EA05237A
:10491000120C22439BB2C16370BC82830384704734
:10492000028C70B422F480521204120C0E8902849C
:10493000028C848B22F400531B0424F4E0420D8883
:104940004C881B0C120443EA0633120C496842EAF5
:10495000052243EA043392B29BB2016470BC8283A5
:1049600003847047002303804380436003817047C2
:1049700010B4048C0123A4B28B4024EA030321F079
:104980000804038418306CB10439C1F34E010B588C
:10499000120223F4E0430B500B5892B21A430A5010
:1049A00010BC704749080B5810BC23F070030B5023
:1049B0000B581A430A507047416370478163704730
:1049C000C163704701647047038B23F070031B04BD
:1049D0001B0C194301837047038B23F4E0431B0432
:1049E0001B0C43EA012189B201837047838B23F0BA
:1049F00070031B041B0C194381837047838B23F4C2
:104A0000E0431B041B0C43EA012189B281837047F8
:104A1000038B23F008031B041B0C1943018370470D
:104A2000038B23F400631B041B0C43EA012189B2AE
:104A300001837047838B23F008031B041B0C19436D
:104A400081837047838B23F400631B041B0C43EAB0
:104A5000012189B281837047038B23F004031B0477
:104A60001B0C194301837047038B23F480631B04E1
:104A70001B0C43EA012189B201837047838B23F029
:104A800004031B041B0C194381837047838B23F49D
:104A900080631B041B0C43EA012189B281837047A8
:104AA000038B23F080031B041B0C19430183704705
:104AB000038BC3F30E0343EA012189B201837047DC
:104AC000838B23F080031B041B0C194381837047E5
:104AD000838BC3F30E0343EA012189B281837047BC
:104AE000038C23F002031B041B0C19430184704741
:104AF000038C23F020031B041B0C43EA011189B231
:104B000001847047038C23F400731B041B0C43EADD
:104B1000012189B201847047038C23F400531B04E4
:104B20001B0C43EA013189B201847047038923F0E9
:104B300008031B041B0C038103899BB219430181E9
:104B4000704700BF10B4048C01238B40A4B224EA48
:104B500003040484038C8A4013439BB2038410BC77
:104B6000704700BF0B88F0B5002B32D0042B57D014
:104B7000082B00F08280028C4F8822F480521204AD
:104B8000120CB1F804E00E890284858B028C25F4A6
:104B9000407422F4005324055B04240D5B0C44EAAA
:104BA0000E2443EA073344EA06349BB243F48053AD
:104BB000A4B284830384828BC98822F440621204E5
:104BC000120C8283838B9BB243EA01239BB28383C3
:104BD000F0BD028C4D8822F001021204120C8E8866
:104BE0000B890284028B048C92B222F0F30224F02F
:104BF0000A0442EA0313240445F001029BB2240C88
:104C00003343144303830484038BCA8823F00C03C7
:104C10001B041B0C0383038B9BB213430383F0BD64
:104C2000048C4E8824F010042404240C8D880F89F1
:104C30000484028B048C22F440731B051B0DA2B26A
:104C400043EA073322F0A0029BB242EA061243EA8B
:104C5000052392B29BB242F0100203830284028BBE
:104C6000C98822F440621204120C0283038B9BB2A7
:104C700043EA01239BB20383F0BD048C4E8824F4E5
:104C800080742404240C8D880A890484848B038C0A
:104C9000A4B29BB224F0F30423F4206344EA02128A
:104CA00043EA062392B29BB22A4343F48073828381
:104CB0000384838BCA8823F00C031B041B0C83839F
:104CC000838B9BB213438383F0BD00BF002301227B
:104CD000828003804380C38003817047F0B5B1F8C0
:104CE00002E08F88BEF1000F0B880CBF0224002465
:104CF000012F0CBF02250125002B4DD0038C0E89FE
:104D000023F010031B041B0C0384028BB0F820C09B
:104D100022F440731B051B0D1FFA8CF243EA063385
:104D200022F0A0029BB242EA0E1243EA072392B29B
:104D30009BB242F0100203830284038BC98823F4E0
:104D400040631B041B0C0383038B9BB243EA0123C8
:104D50009BB20383038C23F001031B041B0C03840D
:104D6000028B078C92B222F0F302BFB242EA061322
:104D700027F00A029BB242F001022B431443038343
:104D80000484038B23F00C031B041B0C0383038B91
:104D90009BB219430183F0BD038CB1F808C023F026
:104DA00001031B041B0C0384068B038CB6B226F094
:104DB000F30623F00A0346EA0C161B044EF0010228
:104DC000B6B21B0C1343374307830384038BC98894
:104DD00023F00C031B041B0C0383038B9BB20B43BC
:104DE0000383038C23F010031B041B0C0384028B2E
:104DF000068C22F440731B051B0DB2B243EA0C3340
:104E000022F0A0029BB242F0100243EA052342EADC
:104E1000041403830484038B23F440631B041B0CDE
:104E20000383038B9BB243EA012189B20183F0BD66
:104E3000406B7047806B7047C06B7047006C704769
:104E4000038B23F00C031B041B0C0383038B9BB20B
:104E500019430183704700BF038B23F440631B0495
:104E60001B0C0383038B9BB243EA012189B20183AC
:104E7000704700BF838B23F00C031B041B0C838340
:104E8000838B9BB219438183704700BF838B23F4CC
:104E900040631B041B0C8383838B9BB243EA012179
:104EA00089B28183704700BF81827047038A1942AB
:104EB00014BF012000207047C94389B201827047A6
:104EC000038A828911EA030092B203D0114214BF0F
:104ED00001200020704700BFC94389B2018270479A
:104EE0000A43A0F84820704783899BB21AB923EA85
:104EF000010181817047194381817047FFF7F4BF39
:104F0000838829B923F008031B041B0C8380704796
:104F10009BB243F008038380704700BF038923F0EE
:104F200007031B041B0C0381704700BF038923F098
:104F300070031B041B0C1943018103899BB243F0CE
:104F400007030381704700BF602930B4048C24D06C
:104F500024F001042404240C0484048B058CA4B2E2
:104F600024F0F304ADB244F0010425F00A0544EA4C
:104F7000031345F001049BB2224303830284038997
:104F800030BC23F070031B041B0C0B43038103890B
:104F90009BB243F007030381704724F010042404FC
:104FA000240C0484048B058C24F440742405ADB2D5
:104FB000240D25F0A00544F4807445F0100544EA62
:104FC000033345EA02129BB292B203830284D6E70E
:104FD00010B4048942EA0323E4B223439BB2194389
:104FE0000181038910BC23F077031B041B0C43F0E1
:104FF00077030381704700BF10B4048942EA03239A
:10500000E4B223439BB219430181038910BC9BB2D4
:1050100043F4804303817047038923F070031B042A
:105020001B0C194301817047838823F070031B0414
:105030001B0C838083889BB219438180704700BF1B
:10504000038923F007031B041B0C038103899BB214
:1050500019430181704700BF038923F080031B04BB
:105060001B0C038103899BB219430181704700BF68
:1050700010B40489E4B221430A4342EA032399B2FB
:10508000018110BC704700BF70B40689048B058C89
:1050900024F4407424F00304ADB225F0220526F078
:1050A000070624042A433604240C360C44F4807486
:1050B00042EA0313314344F001049AB201810483AC
:1050C000028470BC704700BF838829B923F0800335
:1050D0001B041B0C838070479BB243F080038380CA
:1050E000704700BFB0F8503003EA1143A0F85030C9
:1050F000B0F85030194389B2A0F85010704700BF83
:10510000054B064A1B68064803F138013C33106022
:1051100051609360704700BF003C02405C7C0040DF
:105120000101010029B9054A136823EA0000106053
:105130007047024B1A681043186070475C7C00404F
:10514000044A136811B918431060704723EA00003D
:10515000106070475C7C0040054A136819B923EA67
:10516000C0101060704743EAC0101060704700BF65
:105170005C7C0040044B1A6822F080521A601A6866
:1051800010431860704700BF5C7C0040044B5A68B5
:1051900022F000425A605A6810435860704700BFBE
:1051A0005C7C00401E4B012870B45B6814D0B0F5E5
:1051B000807F23D070BC23F4C00343EA014320293D
:1051C00013BF23F0785323F0F87141EA025343EA06
:1051D0004263134A5360704723F06000202940EA7D
:1051E00001000BBF20F01F0520F4787042EA050390
:1051F00040EA42130A4A70BC5360704723F4C0442B
:1052000044EA012420290BBF24F4F84624F478242E
:1052100046EA822344EAC233014A70BC53607047B5
:105220005C7C00401E4B012870B49B6814D0B0F524
:10523000807F23D070BC23F4C00343EA01432029BC
:1052400013BF23F0785323F0F87141EA025343EA85
:105250004263134A9360704723F06000202940EABC
:1052600001000BBF20F01F0520F4787042EA05030F
:1052700040EA42130A4A70BC9360704723F4C0446A
:1052800044EA012420290BBF24F4F84624F47824AE
:1052900046EA822344EAC233014A70BC93607047F5
:1052A0005C7C0040064B01281B6806D0B0F5807F6F
:1052B0000CBFC3F38070D80F7047C3F340707047C2
:1052C0005C7C00400F4B10B419680F4A41F48071A8
:1052D000196099680D480A409A601A68002422F003
:1052E000885222F001121A601A684FF0006122F40D
:1052F00080221A609A6822F47D029A60DC608160E4
:1053000010BC7047003802400CC0FF8800ED00E080
:105310001F4B10B49B6803F00C030C2B08D8DFE87C
:1053200003F0070707071C0707071F0707072200E7
:10533000174B4FF400425B681649C3F34233013305
:1053400002FA03F3124A1448926810BCC2F3031223
:105350000A44127BD34003607047104B0D49F1E7BC
:105360000F4B0C49EEE70A480A4982688368806857
:10537000C3F38153C2F383428C5C5A1CC30355BFF1
:10538000064B0748634300FB04F3B3FBF2F3D9E792
:1053900000380240105E0008540000200024F40091
:1053A00000127A00E45E000800000020580000208F
:1053B0005800002080040020F0B556464D46444673
:1053C0005F46F0B49A4687B09308009353009B1849
:1053D0005B0001911500049380462BE04B46002BA7
:1053E00000D1A1E0019B9C46424663466B43434487
:1053F0009946029BF01A9B1A834200DD0300002BA2
:1054000000D052E14B463C1BDF1B7F1BA74200D95B
:105410002700002F00D07DE1854200D270E1A54237
:1054200000D3C1E04B4629001B1B2000984600F02A
:10543000C3FA019002220323934642461A4206D140
:105440002B4204D12B1F1A00531E9A419346019BF5
:10545000062B00D84CE2019B5A0816006E434644C6
:10546000072B00D0EAE0049B43441C005B46002B62
:1054700000D00AE1434642461B6831681160336040
:105480002B00434403931E000293002327009946F8
:10549000A642A3D84146300000F08BFA002800DC79
:1054A000AAE04346B0461E0009E023683A6822603D
:1054B0003B60012399467F1B641B44452DD331007B
:1054C000200000F076FA002815DBF5D15B46002BB2
:1054D000EBD05B46012B70D0290022003B00A44694
:1054E00010781C78013914701870013201330029CA
:1054F000F6DC6446DDE7330046469846B44200D207
:105500006CE75B46002B65D133682268326023600C
:1055100001239946641B7619BAE73300464698463C
:105520004B46002B00D05DE7019B9C4663466B43D6
:10553000464698466B429946039BB044984533D9FA
:105540002B005D469B46039CA64228D24B46B146A3
:105550001E0006E023683A6822603B603C00B945C3
:105560001AD2A7192100380000F023FA002813DD11
:10557000002DEFD0012D00D1AEE159463B007A1845
:1055800010781C7801391470187001320133002929
:10559000F6DC3C00B945E4D333004E469946039B04
:1055A0005B4403939845CED807B03CBC90469946DF
:1055B000A246AB46F0BC01BC004721003A00A4461D
:1055C000009B08681468013B10C101C2002BF8DC85
:1055D00064466EE75B46012B23D02900220033008E
:1055E000A4461878147801391C7010700133013208
:1055F0000029F6DC64468BE7002800D08BE75B4689
:10560000002B00D0F3E0029A316813681160336018
:10561000029B9C46AC44634602930123761999464B
:1056200036E721003200A446009B10680C68013B5D
:1056300010C201C1002BF8DC644669E7019B5A1EC9
:1056400014006C43220042440292282B71D8C146B8
:10565000029F3100484600F0ACF93900002800DA1A
:10566000B5E0300000F0A5F9029C002800DDFDE661
:105670003900484600F09DF93E00002800DBF5E6C1
:105680004E465B46002B00D1F4E65B46012B00D171
:10569000BFE02A00434619783078013A187031701B
:1056A00001330136002AF6DCEAE65946F21A0229ED
:1056B00000D0B8E04146A446834608781478013B00
:1056C0000C70107001310132002BF6DC4B46644641
:1056D000DB1B58463C1B5B1BA34200D92300002B5D
:1056E00000D199E64A46D21A31781778013B3770D3
:1056F000117001360132002BF6DC854200D38EE6B4
:10570000290000F059F9534601002A004046FFF7EE
:1057100053FE84E64B465946DA1B3B000229E3D090
:10572000BF0833681168013F02C608C2002FF8DCC9
:1057300072E6DF083B006B4399461A000393C144AD
:105740005B0005934B46494640469C1800F031F9F2
:105750002100002800DAAFE0484600F02AF90028CE
:1057600000DC1CE1039AB31A31001800B4181F00C2
:1057700000F01FF92100002800DA8DE0300000F071
:1057800018F9002800DC00E1029B059A9C1A039B93
:10579000E7183900200000F00CF9029900286BDBB3
:1057A000380000F006F9002800DD52E7029F2000D3
:1057B000390000F0FEF8002800DB4AE731004846D7
:1057C000270000F0F6F83900002800DB49E7300038
:1057D00000F0EFF8002840DB3900484600F0E9F817
:1057E0003E00029C002800DA40E64E4649E75B4650
:1057F000012B34D029003300A446029A10781C787B
:10580000013914701870013201330029F6DC644646
:10581000FEE64246009B11683068013B01C202C6A9
:10582000002BF8DC2CE64146A34684469B0808681A
:105830001468013B10C101C2002BF8DC5C464B46EA
:105840003C1BDF1B60467F1BA74200D92700002FAF
:1058500000D1E1E54B46DA1B62E7029C06E6320026
:10586000A4460299009B08681468013B10C101C25C
:10587000002BF8DC6446CBE6380000F09AF80028EC
:1058800000DAE6E60299200000F093F827000028ED
:1058900000DBDEE6029FDCE6300000F08AF800283C
:1058A00000DA71E7210038003E0000F082F800289D
:1058B00000DB69E7260067E7484600F07AF8002831
:1058C00000DA4FE72100404600F073F8C146002897
:1058D00000DB47E7A14645E75B463A00F918009B25
:1058E00008681468013B10C101C2002BF8DC35E6E2
:1058F000464673199946019B9C4663466B436A4230
:10590000F31801939046994500D34DE65F46D34680
:10591000AA464E4528D243464D46B0461E0006E0F4
:105920002B6822682A6023602500A04519D2AC1993
:105930002900200000F03EF8002812DD002FEFD0F3
:10594000012F16D051462300621810781D780139B6
:1059500015701870013201330029F6DC2500A045CE
:10596000E5D3330046469846019BD1449945D0D3B0
:105970001AE653462200E118009B08681568013BAF
:1059800020C101C2002BF8DCCEE72100380000F076
:1059900010F82600002800DBF6E63E00F4E62100C1
:1059A000404600F006F8A146002800DBDAE6C146D2
:1059B000D8E650475847C046012051E21EFF2F014C
:1059C0003600003A010050E12200009A020011E185
:1059D0002300000A0E0211E38111A0010830A00388
:1059E0000130A013010251E3000051310112A03136
:1059F0000332A031FAFFFF3A020151E300005131B6
:105A00008110A0318330A031FAFFFF3A0020A0E3DB
:105A1000010050E10100402003208221A10050E15B
:105A2000A1004020A3208221210150E1210140203A
:105A300023218221A10150E1A1014020A321822143
:105A4000000050E32332B0112112A011EFFFFF1A22
:105A50000200A0E11EFF2FE10100A0030000A0133F
:105A60001EFF2FE1010851E32118A0211020A023DF
:105A70000020A033010C51E32114A0210820822230
:105A8000100051E32112A02104208222040051E3DE
:105A900003208282A12082903002A0E11EFF2FE12C
:105AA0001FFF2FE10000A0E1000050E30000E01321
:105AB000260000EA000051E3F8FFFF0A03402DE949
:105AC000BCFFFFEB0640BDE8920003E0031041E09D
:105AD0001EFF2FE17047C04608B5FAF717FCFAF72A
